{
	"contracts/Example.sol": {
		"Example": {
			"abi": [
				{
					"inputs": [
						{
							"internalType": "uint256",
							"name": "initial_value",
							"type": "uint256"
						},
						{
							"internalType": "string",
							"name": "description",
							"type": "string"
						}
					],
					"stateMutability": "nonpayable",
					"type": "constructor"
				},
				{
					"inputs": [],
					"name": "decrement_counter",
					"outputs": [],
					"stateMutability": "nonpayable",
					"type": "function"
				},
				{
					"inputs": [],
					"name": "get_counter_value",
					"outputs": [
						{
							"internalType": "uint256",
							"name": "",
							"type": "uint256"
						}
					],
					"stateMutability": "view",
					"type": "function"
				},
				{
					"inputs": [],
					"name": "increment_counter",
					"outputs": [],
					"stateMutability": "nonpayable",
					"type": "function"
				}
			],
			"devdoc": {
				"kind": "dev",
				"methods": {},
				"version": 1
			},
			"evm": {
				"assembly": "    /* \"contracts/Example.sol\":63:2510  contract Example {... */\n  mstore(0x40, 0x80)\n    /* \"contracts/Example.sol\":1048:1200  constructor(uint initial_value, string memory description) {... */\n  callvalue\n  dup1\n  iszero\n  tag_1\n  jumpi\n  revert(0x00, 0x00)\ntag_1:\n  pop\n  mload(0x40)\n  sub(codesize, bytecodeSize)\n  dup1\n  bytecodeSize\n  dup4\n  codecopy\n  dup2\n  dup2\n  add\n  0x40\n  mstore\n  dup2\n  add\n  swap1\n  tag_2\n  swap2\n  swap1\n  tag_3\n  jump\t// in\ntag_2:\n    /* \"contracts/Example.sol\":1126:1136  msg.sender */\n  caller\n    /* \"contracts/Example.sol\":1118:1123  owner */\n  0x00\n  0x00\n    /* \"contracts/Example.sol\":1118:1136  owner = msg.sender */\n  0x0100\n  exp\n  dup2\n  sload\n  dup2\n  0xffffffffffffffffffffffffffffffffffffffff\n  mul\n  not\n  and\n  swap1\n  dup4\n  0xffffffffffffffffffffffffffffffffffffffff\n  and\n  mul\n  or\n  swap1\n  sstore\n  pop\n    /* \"contracts/Example.sol\":1157:1192  Counter(initial_value, description) */\n  mload(0x40)\n  dup1\n  0x40\n  add\n  0x40\n  mstore\n  dup1\n    /* \"contracts/Example.sol\":1165:1178  initial_value */\n  dup4\n    /* \"contracts/Example.sol\":1157:1192  Counter(initial_value, description) */\n  dup2\n  mstore\n  0x20\n  add\n    /* \"contracts/Example.sol\":1180:1191  description */\n  dup3\n    /* \"contracts/Example.sol\":1157:1192  Counter(initial_value, description) */\n  dup2\n  mstore\n  pop\n    /* \"contracts/Example.sol\":1147:1154  counter */\n  0x01\n    /* \"contracts/Example.sol\":1147:1192  counter = Counter(initial_value, description) */\n  0x00\n  dup3\n  add\n  mload\n  dup2\n  0x00\n  add\n  sstore\n  0x20\n  dup3\n  add\n  mload\n  dup2\n  0x01\n  add\n  swap1\n  dup2\n  tag_6\n  swap2\n  swap1\n  tag_7\n  jump\t// in\ntag_6:\n  pop\n  swap1\n  pop\n  pop\n    /* \"contracts/Example.sol\":1048:1200  constructor(uint initial_value, string memory description) {... */\n  pop\n  pop\n    /* \"contracts/Example.sol\":63:2510  contract Example {... */\n  jump(tag_8)\n    /* \"#utility.yul\":7:82   */\ntag_9:\n    /* \"#utility.yul\":40:46   */\n  0x00\n    /* \"#utility.yul\":73:75   */\n  0x40\n    /* \"#utility.yul\":67:76   */\n  mload\n    /* \"#utility.yul\":57:76   */\n  swap1\n  pop\n    /* \"#utility.yul\":7:82   */\n  swap1\n  jump\t// out\n    /* \"#utility.yul\":88:205   */\ntag_10:\n    /* \"#utility.yul\":197:198   */\n  0x00\n    /* \"#utility.yul\":194:195   */\n  0x00\n    /* \"#utility.yul\":187:199   */\n  revert\n    /* \"#utility.yul\":211:328   */\ntag_11:\n    /* \"#utility.yul\":320:321   */\n  0x00\n    /* \"#utility.yul\":317:318   */\n  0x00\n    /* \"#utility.yul\":310:322   */\n  revert\n    /* \"#utility.yul\":334:411   */\ntag_12:\n    /* \"#utility.yul\":371:378   */\n  0x00\n    /* \"#utility.yul\":400:405   */\n  dup2\n    /* \"#utility.yul\":389:405   */\n  swap1\n  pop\n    /* \"#utility.yul\":334:411   */\n  swap2\n  swap1\n  pop\n  jump\t// out\n    /* \"#utility.yul\":417:539   */\ntag_13:\n    /* \"#utility.yul\":490:514   */\n  tag_49\n    /* \"#utility.yul\":508:513   */\n  dup2\n    /* \"#utility.yul\":490:514   */\n  tag_12\n  jump\t// in\ntag_49:\n    /* \"#utility.yul\":483:488   */\n  dup2\n    /* \"#utility.yul\":480:515   */\n  eq\n    /* \"#utility.yul\":470:533   */\n  tag_50\n  jumpi\n    /* \"#utility.yul\":529:530   */\n  0x00\n    /* \"#utility.yul\":526:527   */\n  0x00\n    /* \"#utility.yul\":519:531   */\n  revert\n    /* \"#utility.yul\":470:533   */\ntag_50:\n    /* \"#utility.yul\":417:539   */\n  pop\n  jump\t// out\n    /* \"#utility.yul\":545:688   */\ntag_14:\n    /* \"#utility.yul\":602:607   */\n  0x00\n    /* \"#utility.yul\":633:639   */\n  dup2\n    /* \"#utility.yul\":627:640   */\n  mload\n    /* \"#utility.yul\":618:640   */\n  swap1\n  pop\n    /* \"#utility.yul\":649:682   */\n  tag_52\n    /* \"#utility.yul\":676:681   */\n  dup2\n    /* \"#utility.yul\":649:682   */\n  tag_13\n  jump\t// in\ntag_52:\n    /* \"#utility.yul\":545:688   */\n  swap3\n  swap2\n  pop\n  pop\n  jump\t// out\n    /* \"#utility.yul\":694:811   */\ntag_15:\n    /* \"#utility.yul\":803:804   */\n  0x00\n    /* \"#utility.yul\":800:801   */\n  0x00\n    /* \"#utility.yul\":793:805   */\n  revert\n    /* \"#utility.yul\":817:934   */\ntag_16:\n    /* \"#utility.yul\":926:927   */\n  0x00\n    /* \"#utility.yul\":923:924   */\n  0x00\n    /* \"#utility.yul\":916:928   */\n  revert\n    /* \"#utility.yul\":940:1042   */\ntag_17:\n    /* \"#utility.yul\":981:987   */\n  0x00\n    /* \"#utility.yul\":1032:1034   */\n  0x1f\n    /* \"#utility.yul\":1028:1035   */\n  not\n    /* \"#utility.yul\":1023:1025   */\n  0x1f\n    /* \"#utility.yul\":1016:1021   */\n  dup4\n    /* \"#utility.yul\":1012:1026   */\n  add\n    /* \"#utility.yul\":1008:1036   */\n  and\n    /* \"#utility.yul\":998:1036   */\n  swap1\n  pop\n    /* \"#utility.yul\":940:1042   */\n  swap2\n  swap1\n  pop\n  jump\t// out\n    /* \"#utility.yul\":1048:1228   */\ntag_18:\n    /* \"#utility.yul\":1096:1173   */\n  0x4e487b7100000000000000000000000000000000000000000000000000000000\n    /* \"#utility.yul\":1093:1094   */\n  0x00\n    /* \"#utility.yul\":1086:1174   */\n  mstore\n    /* \"#utility.yul\":1193:1197   */\n  0x41\n    /* \"#utility.yul\":1190:1191   */\n  0x04\n    /* \"#utility.yul\":1183:1198   */\n  mstore\n    /* \"#utility.yul\":1217:1221   */\n  0x24\n    /* \"#utility.yul\":1214:1215   */\n  0x00\n    /* \"#utility.yul\":1207:1222   */\n  revert\n    /* \"#utility.yul\":1234:1515   */\ntag_19:\n    /* \"#utility.yul\":1317:1344   */\n  tag_58\n    /* \"#utility.yul\":1339:1343   */\n  dup3\n    /* \"#utility.yul\":1317:1344   */\n  tag_17\n  jump\t// in\ntag_58:\n    /* \"#utility.yul\":1309:1315   */\n  dup2\n    /* \"#utility.yul\":1305:1345   */\n  add\n    /* \"#utility.yul\":1447:1453   */\n  dup2\n    /* \"#utility.yul\":1435:1445   */\n  dup2\n    /* \"#utility.yul\":1432:1454   */\n  lt\n    /* \"#utility.yul\":1411:1429   */\n  0xffffffffffffffff\n    /* \"#utility.yul\":1399:1409   */\n  dup3\n    /* \"#utility.yul\":1396:1430   */\n  gt\n    /* \"#utility.yul\":1393:1455   */\n  or\n    /* \"#utility.yul\":1390:1478   */\n  iszero\n  tag_59\n  jumpi\n    /* \"#utility.yul\":1458:1476   */\n  tag_60\n  tag_18\n  jump\t// in\ntag_60:\n    /* \"#utility.yul\":1390:1478   */\ntag_59:\n    /* \"#utility.yul\":1498:1508   */\n  dup1\n    /* \"#utility.yul\":1494:1496   */\n  0x40\n    /* \"#utility.yul\":1487:1509   */\n  mstore\n    /* \"#utility.yul\":1277:1515   */\n  pop\n    /* \"#utility.yul\":1234:1515   */\n  pop\n  pop\n  jump\t// out\n    /* \"#utility.yul\":1521:1650   */\ntag_20:\n    /* \"#utility.yul\":1555:1561   */\n  0x00\n    /* \"#utility.yul\":1582:1602   */\n  tag_62\n  tag_9\n  jump\t// in\ntag_62:\n    /* \"#utility.yul\":1572:1602   */\n  swap1\n  pop\n    /* \"#utility.yul\":1611:1644   */\n  tag_63\n    /* \"#utility.yul\":1639:1643   */\n  dup3\n    /* \"#utility.yul\":1631:1637   */\n  dup3\n    /* \"#utility.yul\":1611:1644   */\n  tag_19\n  jump\t// in\ntag_63:\n    /* \"#utility.yul\":1521:1650   */\n  swap2\n  swap1\n  pop\n  jump\t// out\n    /* \"#utility.yul\":1656:1964   */\ntag_21:\n    /* \"#utility.yul\":1718:1722   */\n  0x00\n    /* \"#utility.yul\":1808:1826   */\n  0xffffffffffffffff\n    /* \"#utility.yul\":1800:1806   */\n  dup3\n    /* \"#utility.yul\":1797:1827   */\n  gt\n    /* \"#utility.yul\":1794:1850   */\n  iszero\n  tag_65\n  jumpi\n    /* \"#utility.yul\":1830:1848   */\n  tag_66\n  tag_18\n  jump\t// in\ntag_66:\n    /* \"#utility.yul\":1794:1850   */\ntag_65:\n    /* \"#utility.yul\":1868:1897   */\n  tag_67\n    /* \"#utility.yul\":1890:1896   */\n  dup3\n    /* \"#utility.yul\":1868:1897   */\n  tag_17\n  jump\t// in\ntag_67:\n    /* \"#utility.yul\":1860:1897   */\n  swap1\n  pop\n    /* \"#utility.yul\":1952:1956   */\n  0x20\n    /* \"#utility.yul\":1946:1950   */\n  dup2\n    /* \"#utility.yul\":1942:1957   */\n  add\n    /* \"#utility.yul\":1934:1957   */\n  swap1\n  pop\n    /* \"#utility.yul\":1656:1964   */\n  swap2\n  swap1\n  pop\n  jump\t// out\n    /* \"#utility.yul\":1970:2109   */\ntag_22:\n    /* \"#utility.yul\":2059:2065   */\n  dup3\n    /* \"#utility.yul\":2054:2057   */\n  dup2\n    /* \"#utility.yul\":2049:2052   */\n  dup4\n    /* \"#utility.yul\":2043:2066   */\n  mcopy\n    /* \"#utility.yul\":2100:2101   */\n  0x00\n    /* \"#utility.yul\":2091:2097   */\n  dup4\n    /* \"#utility.yul\":2086:2089   */\n  dup4\n    /* \"#utility.yul\":2082:2098   */\n  add\n    /* \"#utility.yul\":2075:2102   */\n  mstore\n    /* \"#utility.yul\":1970:2109   */\n  pop\n  pop\n  pop\n  jump\t// out\n    /* \"#utility.yul\":2115:2549   */\ntag_23:\n    /* \"#utility.yul\":2204:2209   */\n  0x00\n    /* \"#utility.yul\":2229:2295   */\n  tag_70\n    /* \"#utility.yul\":2245:2294   */\n  tag_71\n    /* \"#utility.yul\":2287:2293   */\n  dup5\n    /* \"#utility.yul\":2245:2294   */\n  tag_21\n  jump\t// in\ntag_71:\n    /* \"#utility.yul\":2229:2295   */\n  tag_20\n  jump\t// in\ntag_70:\n    /* \"#utility.yul\":2220:2295   */\n  swap1\n  pop\n    /* \"#utility.yul\":2318:2324   */\n  dup3\n    /* \"#utility.yul\":2311:2316   */\n  dup2\n    /* \"#utility.yul\":2304:2325   */\n  mstore\n    /* \"#utility.yul\":2356:2360   */\n  0x20\n    /* \"#utility.yul\":2349:2354   */\n  dup2\n    /* \"#utility.yul\":2345:2361   */\n  add\n    /* \"#utility.yul\":2394:2397   */\n  dup5\n    /* \"#utility.yul\":2385:2391   */\n  dup5\n    /* \"#utility.yul\":2380:2383   */\n  dup5\n    /* \"#utility.yul\":2376:2392   */\n  add\n    /* \"#utility.yul\":2373:2398   */\n  gt\n    /* \"#utility.yul\":2370:2482   */\n  iszero\n  tag_72\n  jumpi\n    /* \"#utility.yul\":2401:2480   */\n  tag_73\n  tag_16\n  jump\t// in\ntag_73:\n    /* \"#utility.yul\":2370:2482   */\ntag_72:\n    /* \"#utility.yul\":2491:2543   */\n  tag_74\n    /* \"#utility.yul\":2536:2542   */\n  dup5\n    /* \"#utility.yul\":2531:2534   */\n  dup3\n    /* \"#utility.yul\":2526:2529   */\n  dup6\n    /* \"#utility.yul\":2491:2543   */\n  tag_22\n  jump\t// in\ntag_74:\n    /* \"#utility.yul\":2210:2549   */\n  pop\n    /* \"#utility.yul\":2115:2549   */\n  swap4\n  swap3\n  pop\n  pop\n  pop\n  jump\t// out\n    /* \"#utility.yul\":2569:2924   */\ntag_24:\n    /* \"#utility.yul\":2636:2641   */\n  0x00\n    /* \"#utility.yul\":2685:2688   */\n  dup3\n    /* \"#utility.yul\":2678:2682   */\n  0x1f\n    /* \"#utility.yul\":2670:2676   */\n  dup4\n    /* \"#utility.yul\":2666:2683   */\n  add\n    /* \"#utility.yul\":2662:2689   */\n  slt\n    /* \"#utility.yul\":2652:2774   */\n  tag_76\n  jumpi\n    /* \"#utility.yul\":2693:2772   */\n  tag_77\n  tag_15\n  jump\t// in\ntag_77:\n    /* \"#utility.yul\":2652:2774   */\ntag_76:\n    /* \"#utility.yul\":2803:2809   */\n  dup2\n    /* \"#utility.yul\":2797:2810   */\n  mload\n    /* \"#utility.yul\":2828:2918   */\n  tag_78\n    /* \"#utility.yul\":2914:2917   */\n  dup5\n    /* \"#utility.yul\":2906:2912   */\n  dup3\n    /* \"#utility.yul\":2899:2903   */\n  0x20\n    /* \"#utility.yul\":2891:2897   */\n  dup7\n    /* \"#utility.yul\":2887:2904   */\n  add\n    /* \"#utility.yul\":2828:2918   */\n  tag_23\n  jump\t// in\ntag_78:\n    /* \"#utility.yul\":2819:2918   */\n  swap2\n  pop\n    /* \"#utility.yul\":2642:2924   */\n  pop\n    /* \"#utility.yul\":2569:2924   */\n  swap3\n  swap2\n  pop\n  pop\n  jump\t// out\n    /* \"#utility.yul\":2930:3610   */\ntag_3:\n    /* \"#utility.yul\":3019:3025   */\n  0x00\n    /* \"#utility.yul\":3027:3033   */\n  0x00\n    /* \"#utility.yul\":3076:3078   */\n  0x40\n    /* \"#utility.yul\":3064:3073   */\n  dup4\n    /* \"#utility.yul\":3055:3062   */\n  dup6\n    /* \"#utility.yul\":3051:3074   */\n  sub\n    /* \"#utility.yul\":3047:3079   */\n  slt\n    /* \"#utility.yul\":3044:3163   */\n  iszero\n  tag_80\n  jumpi\n    /* \"#utility.yul\":3082:3161   */\n  tag_81\n  tag_10\n  jump\t// in\ntag_81:\n    /* \"#utility.yul\":3044:3163   */\ntag_80:\n    /* \"#utility.yul\":3202:3203   */\n  0x00\n    /* \"#utility.yul\":3227:3291   */\n  tag_82\n    /* \"#utility.yul\":3283:3290   */\n  dup6\n    /* \"#utility.yul\":3274:3280   */\n  dup3\n    /* \"#utility.yul\":3263:3272   */\n  dup7\n    /* \"#utility.yul\":3259:3281   */\n  add\n    /* \"#utility.yul\":3227:3291   */\n  tag_14\n  jump\t// in\ntag_82:\n    /* \"#utility.yul\":3217:3291   */\n  swap3\n  pop\n    /* \"#utility.yul\":3173:3301   */\n  pop\n    /* \"#utility.yul\":3361:3363   */\n  0x20\n    /* \"#utility.yul\":3350:3359   */\n  dup4\n    /* \"#utility.yul\":3346:3364   */\n  add\n    /* \"#utility.yul\":3340:3365   */\n  mload\n    /* \"#utility.yul\":3392:3410   */\n  0xffffffffffffffff\n    /* \"#utility.yul\":3384:3390   */\n  dup2\n    /* \"#utility.yul\":3381:3411   */\n  gt\n    /* \"#utility.yul\":3378:3495   */\n  iszero\n  tag_83\n  jumpi\n    /* \"#utility.yul\":3414:3493   */\n  tag_84\n  tag_11\n  jump\t// in\ntag_84:\n    /* \"#utility.yul\":3378:3495   */\ntag_83:\n    /* \"#utility.yul\":3519:3593   */\n  tag_85\n    /* \"#utility.yul\":3585:3592   */\n  dup6\n    /* \"#utility.yul\":3576:3582   */\n  dup3\n    /* \"#utility.yul\":3565:3574   */\n  dup7\n    /* \"#utility.yul\":3561:3583   */\n  add\n    /* \"#utility.yul\":3519:3593   */\n  tag_24\n  jump\t// in\ntag_85:\n    /* \"#utility.yul\":3509:3593   */\n  swap2\n  pop\n    /* \"#utility.yul\":3311:3603   */\n  pop\n    /* \"#utility.yul\":2930:3610   */\n  swap3\n  pop\n  swap3\n  swap1\n  pop\n  jump\t// out\n    /* \"#utility.yul\":3616:3715   */\ntag_25:\n    /* \"#utility.yul\":3668:3674   */\n  0x00\n    /* \"#utility.yul\":3702:3707   */\n  dup2\n    /* \"#utility.yul\":3696:3708   */\n  mload\n    /* \"#utility.yul\":3686:3708   */\n  swap1\n  pop\n    /* \"#utility.yul\":3616:3715   */\n  swap2\n  swap1\n  pop\n  jump\t// out\n    /* \"#utility.yul\":3721:3901   */\ntag_26:\n    /* \"#utility.yul\":3769:3846   */\n  0x4e487b7100000000000000000000000000000000000000000000000000000000\n    /* \"#utility.yul\":3766:3767   */\n  0x00\n    /* \"#utility.yul\":3759:3847   */\n  mstore\n    /* \"#utility.yul\":3866:3870   */\n  0x22\n    /* \"#utility.yul\":3863:3864   */\n  0x04\n    /* \"#utility.yul\":3856:3871   */\n  mstore\n    /* \"#utility.yul\":3890:3894   */\n  0x24\n    /* \"#utility.yul\":3887:3888   */\n  0x00\n    /* \"#utility.yul\":3880:3895   */\n  revert\n    /* \"#utility.yul\":3907:4227   */\ntag_27:\n    /* \"#utility.yul\":3951:3957   */\n  0x00\n    /* \"#utility.yul\":3988:3989   */\n  0x02\n    /* \"#utility.yul\":3982:3986   */\n  dup3\n    /* \"#utility.yul\":3978:3990   */\n  div\n    /* \"#utility.yul\":3968:3990   */\n  swap1\n  pop\n    /* \"#utility.yul\":4035:4036   */\n  0x01\n    /* \"#utility.yul\":4029:4033   */\n  dup3\n    /* \"#utility.yul\":4025:4037   */\n  and\n    /* \"#utility.yul\":4056:4074   */\n  dup1\n    /* \"#utility.yul\":4046:4127   */\n  tag_89\n  jumpi\n    /* \"#utility.yul\":4112:4116   */\n  0x7f\n    /* \"#utility.yul\":4104:4110   */\n  dup3\n    /* \"#utility.yul\":4100:4117   */\n  and\n    /* \"#utility.yul\":4090:4117   */\n  swap2\n  pop\n    /* \"#utility.yul\":4046:4127   */\ntag_89:\n    /* \"#utility.yul\":4174:4176   */\n  0x20\n    /* \"#utility.yul\":4166:4172   */\n  dup3\n    /* \"#utility.yul\":4163:4177   */\n  lt\n    /* \"#utility.yul\":4143:4161   */\n  dup2\n    /* \"#utility.yul\":4140:4178   */\n  sub\n    /* \"#utility.yul\":4137:4221   */\n  tag_90\n  jumpi\n    /* \"#utility.yul\":4193:4211   */\n  tag_91\n  tag_26\n  jump\t// in\ntag_91:\n    /* \"#utility.yul\":4137:4221   */\ntag_90:\n    /* \"#utility.yul\":3958:4227   */\n  pop\n    /* \"#utility.yul\":3907:4227   */\n  swap2\n  swap1\n  pop\n  jump\t// out\n    /* \"#utility.yul\":4233:4374   */\ntag_28:\n    /* \"#utility.yul\":4282:4286   */\n  0x00\n    /* \"#utility.yul\":4305:4308   */\n  dup2\n    /* \"#utility.yul\":4297:4308   */\n  swap1\n  pop\n    /* \"#utility.yul\":4328:4331   */\n  dup2\n    /* \"#utility.yul\":4325:4326   */\n  0x00\n    /* \"#utility.yul\":4318:4332   */\n  mstore\n    /* \"#utility.yul\":4362:4366   */\n  0x20\n    /* \"#utility.yul\":4359:4360   */\n  0x00\n    /* \"#utility.yul\":4349:4367   */\n  keccak256\n    /* \"#utility.yul\":4341:4367   */\n  swap1\n  pop\n    /* \"#utility.yul\":4233:4374   */\n  swap2\n  swap1\n  pop\n  jump\t// out\n    /* \"#utility.yul\":4380:4473   */\ntag_29:\n    /* \"#utility.yul\":4417:4423   */\n  0x00\n    /* \"#utility.yul\":4464:4466   */\n  0x20\n    /* \"#utility.yul\":4459:4461   */\n  0x1f\n    /* \"#utility.yul\":4452:4457   */\n  dup4\n    /* \"#utility.yul\":4448:4462   */\n  add\n    /* \"#utility.yul\":4444:4467   */\n  div\n    /* \"#utility.yul\":4434:4467   */\n  swap1\n  pop\n    /* \"#utility.yul\":4380:4473   */\n  swap2\n  swap1\n  pop\n  jump\t// out\n    /* \"#utility.yul\":4479:4586   */\ntag_30:\n    /* \"#utility.yul\":4523:4531   */\n  0x00\n    /* \"#utility.yul\":4573:4578   */\n  dup3\n    /* \"#utility.yul\":4567:4571   */\n  dup3\n    /* \"#utility.yul\":4563:4579   */\n  shl\n    /* \"#utility.yul\":4542:4579   */\n  swap1\n  pop\n    /* \"#utility.yul\":4479:4586   */\n  swap3\n  swap2\n  pop\n  pop\n  jump\t// out\n    /* \"#utility.yul\":4592:4985   */\ntag_31:\n    /* \"#utility.yul\":4661:4667   */\n  0x00\n    /* \"#utility.yul\":4711:4712   */\n  0x08\n    /* \"#utility.yul\":4699:4709   */\n  dup4\n    /* \"#utility.yul\":4695:4713   */\n  mul\n    /* \"#utility.yul\":4734:4831   */\n  tag_96\n    /* \"#utility.yul\":4764:4830   */\n  0xffffffffffffffffffffffffffffffffffffffffffffffffffffffffffffffff\n    /* \"#utility.yul\":4753:4762   */\n  dup3\n    /* \"#utility.yul\":4734:4831   */\n  tag_30\n  jump\t// in\ntag_96:\n    /* \"#utility.yul\":4852:4891   */\n  tag_97\n    /* \"#utility.yul\":4882:4890   */\n  dup7\n    /* \"#utility.yul\":4871:4880   */\n  dup4\n    /* \"#utility.yul\":4852:4891   */\n  tag_30\n  jump\t// in\ntag_97:\n    /* \"#utility.yul\":4840:4891   */\n  swap6\n  pop\n    /* \"#utility.yul\":4924:4928   */\n  dup1\n    /* \"#utility.yul\":4920:4929   */\n  not\n    /* \"#utility.yul\":4913:4918   */\n  dup5\n    /* \"#utility.yul\":4909:4930   */\n  and\n    /* \"#utility.yul\":4900:4930   */\n  swap4\n  pop\n    /* \"#utility.yul\":4973:4977   */\n  dup1\n    /* \"#utility.yul\":4963:4971   */\n  dup7\n    /* \"#utility.yul\":4959:4978   */\n  and\n    /* \"#utility.yul\":4952:4957   */\n  dup5\n    /* \"#utility.yul\":4949:4979   */\n  or\n    /* \"#utility.yul\":4939:4979   */\n  swap3\n  pop\n    /* \"#utility.yul\":4668:4985   */\n  pop\n  pop\n    /* \"#utility.yul\":4592:4985   */\n  swap4\n  swap3\n  pop\n  pop\n  pop\n  jump\t// out\n    /* \"#utility.yul\":4991:5051   */\ntag_32:\n    /* \"#utility.yul\":5019:5022   */\n  0x00\n    /* \"#utility.yul\":5040:5045   */\n  dup2\n    /* \"#utility.yul\":5033:5045   */\n  swap1\n  pop\n    /* \"#utility.yul\":4991:5051   */\n  swap2\n  swap1\n  pop\n  jump\t// out\n    /* \"#utility.yul\":5057:5199   */\ntag_33:\n    /* \"#utility.yul\":5107:5116   */\n  0x00\n    /* \"#utility.yul\":5140:5193   */\n  tag_100\n    /* \"#utility.yul\":5158:5192   */\n  tag_101\n    /* \"#utility.yul\":5167:5191   */\n  tag_102\n    /* \"#utility.yul\":5185:5190   */\n  dup5\n    /* \"#utility.yul\":5167:5191   */\n  tag_12\n  jump\t// in\ntag_102:\n    /* \"#utility.yul\":5158:5192   */\n  tag_32\n  jump\t// in\ntag_101:\n    /* \"#utility.yul\":5140:5193   */\n  tag_12\n  jump\t// in\ntag_100:\n    /* \"#utility.yul\":5127:5193   */\n  swap1\n  pop\n    /* \"#utility.yul\":5057:5199   */\n  swap2\n  swap1\n  pop\n  jump\t// out\n    /* \"#utility.yul\":5205:5280   */\ntag_34:\n    /* \"#utility.yul\":5248:5251   */\n  0x00\n    /* \"#utility.yul\":5269:5274   */\n  dup2\n    /* \"#utility.yul\":5262:5274   */\n  swap1\n  pop\n    /* \"#utility.yul\":5205:5280   */\n  swap2\n  swap1\n  pop\n  jump\t// out\n    /* \"#utility.yul\":5286:5555   */\ntag_35:\n    /* \"#utility.yul\":5396:5435   */\n  tag_105\n    /* \"#utility.yul\":5427:5434   */\n  dup4\n    /* \"#utility.yul\":5396:5435   */\n  tag_33\n  jump\t// in\ntag_105:\n    /* \"#utility.yul\":5457:5548   */\n  tag_106\n    /* \"#utility.yul\":5506:5547   */\n  tag_107\n    /* \"#utility.yul\":5530:5546   */\n  dup3\n    /* \"#utility.yul\":5506:5547   */\n  tag_34\n  jump\t// in\ntag_107:\n    /* \"#utility.yul\":5498:5504   */\n  dup5\n    /* \"#utility.yul\":5491:5495   */\n  dup5\n    /* \"#utility.yul\":5485:5496   */\n  sload\n    /* \"#utility.yul\":5457:5548   */\n  tag_31\n  jump\t// in\ntag_106:\n    /* \"#utility.yul\":5451:5455   */\n  dup3\n    /* \"#utility.yul\":5444:5549   */\n  sstore\n    /* \"#utility.yul\":5362:5555   */\n  pop\n    /* \"#utility.yul\":5286:5555   */\n  pop\n  pop\n  pop\n  jump\t// out\n    /* \"#utility.yul\":5561:5634   */\ntag_36:\n    /* \"#utility.yul\":5606:5609   */\n  0x00\n    /* \"#utility.yul\":5627:5628   */\n  0x00\n    /* \"#utility.yul\":5620:5628   */\n  swap1\n  pop\n    /* \"#utility.yul\":5561:5634   */\n  swap1\n  jump\t// out\n    /* \"#utility.yul\":5640:5829   */\ntag_37:\n    /* \"#utility.yul\":5717:5749   */\n  tag_110\n  tag_36\n  jump\t// in\ntag_110:\n    /* \"#utility.yul\":5758:5823   */\n  tag_111\n    /* \"#utility.yul\":5816:5822   */\n  dup2\n    /* \"#utility.yul\":5808:5814   */\n  dup5\n    /* \"#utility.yul\":5802:5806   */\n  dup5\n    /* \"#utility.yul\":5758:5823   */\n  tag_35\n  jump\t// in\ntag_111:\n    /* \"#utility.yul\":5693:5829   */\n  pop\n    /* \"#utility.yul\":5640:5829   */\n  pop\n  pop\n  jump\t// out\n    /* \"#utility.yul\":5835:6021   */\ntag_38:\n    /* \"#utility.yul\":5895:6015   */\ntag_113:\n    /* \"#utility.yul\":5912:5915   */\n  dup2\n    /* \"#utility.yul\":5905:5910   */\n  dup2\n    /* \"#utility.yul\":5902:5916   */\n  lt\n    /* \"#utility.yul\":5895:6015   */\n  iszero\n  tag_115\n  jumpi\n    /* \"#utility.yul\":5966:6005   */\n  tag_116\n    /* \"#utility.yul\":6003:6004   */\n  0x00\n    /* \"#utility.yul\":5996:6001   */\n  dup3\n    /* \"#utility.yul\":5966:6005   */\n  tag_37\n  jump\t// in\ntag_116:\n    /* \"#utility.yul\":5939:5940   */\n  0x01\n    /* \"#utility.yul\":5932:5937   */\n  dup2\n    /* \"#utility.yul\":5928:5941   */\n  add\n    /* \"#utility.yul\":5919:5941   */\n  swap1\n  pop\n    /* \"#utility.yul\":5895:6015   */\n  jump(tag_113)\ntag_115:\n    /* \"#utility.yul\":5835:6021   */\n  pop\n  pop\n  jump\t// out\n    /* \"#utility.yul\":6027:6570   */\ntag_39:\n    /* \"#utility.yul\":6128:6130   */\n  0x1f\n    /* \"#utility.yul\":6123:6126   */\n  dup3\n    /* \"#utility.yul\":6120:6131   */\n  gt\n    /* \"#utility.yul\":6117:6563   */\n  iszero\n  tag_118\n  jumpi\n    /* \"#utility.yul\":6162:6200   */\n  tag_119\n    /* \"#utility.yul\":6194:6199   */\n  dup2\n    /* \"#utility.yul\":6162:6200   */\n  tag_28\n  jump\t// in\ntag_119:\n    /* \"#utility.yul\":6246:6275   */\n  tag_120\n    /* \"#utility.yul\":6264:6274   */\n  dup5\n    /* \"#utility.yul\":6246:6275   */\n  tag_29\n  jump\t// in\ntag_120:\n    /* \"#utility.yul\":6236:6244   */\n  dup2\n    /* \"#utility.yul\":6232:6276   */\n  add\n    /* \"#utility.yul\":6429:6431   */\n  0x20\n    /* \"#utility.yul\":6417:6427   */\n  dup6\n    /* \"#utility.yul\":6414:6432   */\n  lt\n    /* \"#utility.yul\":6411:6460   */\n  iszero\n  tag_121\n  jumpi\n    /* \"#utility.yul\":6450:6458   */\n  dup2\n    /* \"#utility.yul\":6435:6458   */\n  swap1\n  pop\n    /* \"#utility.yul\":6411:6460   */\ntag_121:\n    /* \"#utility.yul\":6473:6553   */\n  tag_122\n    /* \"#utility.yul\":6529:6551   */\n  tag_123\n    /* \"#utility.yul\":6547:6550   */\n  dup6\n    /* \"#utility.yul\":6529:6551   */\n  tag_29\n  jump\t// in\ntag_123:\n    /* \"#utility.yul\":6519:6527   */\n  dup4\n    /* \"#utility.yul\":6515:6552   */\n  add\n    /* \"#utility.yul\":6502:6513   */\n  dup3\n    /* \"#utility.yul\":6473:6553   */\n  tag_38\n  jump\t// in\ntag_122:\n    /* \"#utility.yul\":6132:6563   */\n  pop\n  pop\n    /* \"#utility.yul\":6117:6563   */\ntag_118:\n    /* \"#utility.yul\":6027:6570   */\n  pop\n  pop\n  pop\n  jump\t// out\n    /* \"#utility.yul\":6576:6693   */\ntag_40:\n    /* \"#utility.yul\":6630:6638   */\n  0x00\n    /* \"#utility.yul\":6680:6685   */\n  dup3\n    /* \"#utility.yul\":6674:6678   */\n  dup3\n    /* \"#utility.yul\":6670:6686   */\n  shr\n    /* \"#utility.yul\":6649:6686   */\n  swap1\n  pop\n    /* \"#utility.yul\":6576:6693   */\n  swap3\n  swap2\n  pop\n  pop\n  jump\t// out\n    /* \"#utility.yul\":6699:6868   */\ntag_41:\n    /* \"#utility.yul\":6743:6749   */\n  0x00\n    /* \"#utility.yul\":6776:6827   */\n  tag_126\n    /* \"#utility.yul\":6824:6825   */\n  0x00\n    /* \"#utility.yul\":6820:6826   */\n  not\n    /* \"#utility.yul\":6812:6817   */\n  dup5\n    /* \"#utility.yul\":6809:6810   */\n  0x08\n    /* \"#utility.yul\":6805:6818   */\n  mul\n    /* \"#utility.yul\":6776:6827   */\n  tag_40\n  jump\t// in\ntag_126:\n    /* \"#utility.yul\":6772:6828   */\n  not\n    /* \"#utility.yul\":6857:6861   */\n  dup1\n    /* \"#utility.yul\":6851:6855   */\n  dup4\n    /* \"#utility.yul\":6847:6862   */\n  and\n    /* \"#utility.yul\":6837:6862   */\n  swap2\n  pop\n    /* \"#utility.yul\":6750:6868   */\n  pop\n    /* \"#utility.yul\":6699:6868   */\n  swap3\n  swap2\n  pop\n  pop\n  jump\t// out\n    /* \"#utility.yul\":6873:7168   */\ntag_42:\n    /* \"#utility.yul\":6949:6953   */\n  0x00\n    /* \"#utility.yul\":7095:7124   */\n  tag_128\n    /* \"#utility.yul\":7120:7123   */\n  dup4\n    /* \"#utility.yul\":7114:7118   */\n  dup4\n    /* \"#utility.yul\":7095:7124   */\n  tag_41\n  jump\t// in\ntag_128:\n    /* \"#utility.yul\":7087:7124   */\n  swap2\n  pop\n    /* \"#utility.yul\":7157:7160   */\n  dup3\n    /* \"#utility.yul\":7154:7155   */\n  0x02\n    /* \"#utility.yul\":7150:7161   */\n  mul\n    /* \"#utility.yul\":7144:7148   */\n  dup3\n    /* \"#utility.yul\":7141:7162   */\n  or\n    /* \"#utility.yul\":7133:7162   */\n  swap1\n  pop\n    /* \"#utility.yul\":6873:7168   */\n  swap3\n  swap2\n  pop\n  pop\n  jump\t// out\n    /* \"#utility.yul\":7173:8568   */\ntag_7:\n    /* \"#utility.yul\":7290:7327   */\n  tag_130\n    /* \"#utility.yul\":7323:7326   */\n  dup3\n    /* \"#utility.yul\":7290:7327   */\n  tag_25\n  jump\t// in\ntag_130:\n    /* \"#utility.yul\":7392:7410   */\n  0xffffffffffffffff\n    /* \"#utility.yul\":7384:7390   */\n  dup2\n    /* \"#utility.yul\":7381:7411   */\n  gt\n    /* \"#utility.yul\":7378:7434   */\n  iszero\n  tag_131\n  jumpi\n    /* \"#utility.yul\":7414:7432   */\n  tag_132\n  tag_18\n  jump\t// in\ntag_132:\n    /* \"#utility.yul\":7378:7434   */\ntag_131:\n    /* \"#utility.yul\":7458:7496   */\n  tag_133\n    /* \"#utility.yul\":7490:7494   */\n  dup3\n    /* \"#utility.yul\":7484:7495   */\n  sload\n    /* \"#utility.yul\":7458:7496   */\n  tag_27\n  jump\t// in\ntag_133:\n    /* \"#utility.yul\":7543:7610   */\n  tag_134\n    /* \"#utility.yul\":7603:7609   */\n  dup3\n    /* \"#utility.yul\":7595:7601   */\n  dup3\n    /* \"#utility.yul\":7589:7593   */\n  dup6\n    /* \"#utility.yul\":7543:7610   */\n  tag_39\n  jump\t// in\ntag_134:\n    /* \"#utility.yul\":7637:7638   */\n  0x00\n    /* \"#utility.yul\":7661:7665   */\n  0x20\n    /* \"#utility.yul\":7648:7665   */\n  swap1\n  pop\n    /* \"#utility.yul\":7693:7695   */\n  0x1f\n    /* \"#utility.yul\":7685:7691   */\n  dup4\n    /* \"#utility.yul\":7682:7696   */\n  gt\n    /* \"#utility.yul\":7710:7711   */\n  0x01\n    /* \"#utility.yul\":7705:8323   */\n  dup2\n  eq\n  tag_136\n  jumpi\n    /* \"#utility.yul\":8367:8368   */\n  0x00\n    /* \"#utility.yul\":8384:8390   */\n  dup5\n    /* \"#utility.yul\":8381:8458   */\n  iszero\n  tag_137\n  jumpi\n    /* \"#utility.yul\":8433:8442   */\n  dup3\n    /* \"#utility.yul\":8428:8431   */\n  dup8\n    /* \"#utility.yul\":8424:8443   */\n  add\n    /* \"#utility.yul\":8418:8444   */\n  mload\n    /* \"#utility.yul\":8409:8444   */\n  swap1\n  pop\n    /* \"#utility.yul\":8381:8458   */\ntag_137:\n    /* \"#utility.yul\":8484:8551   */\n  tag_138\n    /* \"#utility.yul\":8544:8550   */\n  dup6\n    /* \"#utility.yul\":8537:8542   */\n  dup3\n    /* \"#utility.yul\":8484:8551   */\n  tag_42\n  jump\t// in\ntag_138:\n    /* \"#utility.yul\":8478:8482   */\n  dup7\n    /* \"#utility.yul\":8471:8552   */\n  sstore\n    /* \"#utility.yul\":8340:8562   */\n  pop\n    /* \"#utility.yul\":7675:8562   */\n  jump(tag_135)\n    /* \"#utility.yul\":7705:8323   */\ntag_136:\n    /* \"#utility.yul\":7757:7761   */\n  0x1f\n    /* \"#utility.yul\":7753:7762   */\n  not\n    /* \"#utility.yul\":7745:7751   */\n  dup5\n    /* \"#utility.yul\":7741:7763   */\n  and\n    /* \"#utility.yul\":7791:7828   */\n  tag_139\n    /* \"#utility.yul\":7823:7827   */\n  dup7\n    /* \"#utility.yul\":7791:7828   */\n  tag_28\n  jump\t// in\ntag_139:\n    /* \"#utility.yul\":7850:7851   */\n  0x00\n    /* \"#utility.yul\":7864:8072   */\ntag_140:\n    /* \"#utility.yul\":7878:7885   */\n  dup3\n    /* \"#utility.yul\":7875:7876   */\n  dup2\n    /* \"#utility.yul\":7872:7886   */\n  lt\n    /* \"#utility.yul\":7864:8072   */\n  iszero\n  tag_142\n  jumpi\n    /* \"#utility.yul\":7957:7966   */\n  dup5\n    /* \"#utility.yul\":7952:7955   */\n  dup10\n    /* \"#utility.yul\":7948:7967   */\n  add\n    /* \"#utility.yul\":7942:7968   */\n  mload\n    /* \"#utility.yul\":7934:7940   */\n  dup3\n    /* \"#utility.yul\":7927:7969   */\n  sstore\n    /* \"#utility.yul\":8008:8009   */\n  0x01\n    /* \"#utility.yul\":8000:8006   */\n  dup3\n    /* \"#utility.yul\":7996:8010   */\n  add\n    /* \"#utility.yul\":7986:8010   */\n  swap2\n  pop\n    /* \"#utility.yul\":8055:8057   */\n  0x20\n    /* \"#utility.yul\":8044:8053   */\n  dup6\n    /* \"#utility.yul\":8040:8058   */\n  add\n    /* \"#utility.yul\":8027:8058   */\n  swap5\n  pop\n    /* \"#utility.yul\":7901:7905   */\n  0x20\n    /* \"#utility.yul\":7898:7899   */\n  dup2\n    /* \"#utility.yul\":7894:7906   */\n  add\n    /* \"#utility.yul\":7889:7906   */\n  swap1\n  pop\n    /* \"#utility.yul\":7864:8072   */\n  jump(tag_140)\ntag_142:\n    /* \"#utility.yul\":8100:8106   */\n  dup7\n    /* \"#utility.yul\":8091:8098   */\n  dup4\n    /* \"#utility.yul\":8088:8107   */\n  lt\n    /* \"#utility.yul\":8085:8264   */\n  iszero\n  tag_143\n  jumpi\n    /* \"#utility.yul\":8158:8167   */\n  dup5\n    /* \"#utility.yul\":8153:8156   */\n  dup10\n    /* \"#utility.yul\":8149:8168   */\n  add\n    /* \"#utility.yul\":8143:8169   */\n  mload\n    /* \"#utility.yul\":8201:8249   */\n  tag_144\n    /* \"#utility.yul\":8243:8247   */\n  0x1f\n    /* \"#utility.yul\":8235:8241   */\n  dup10\n    /* \"#utility.yul\":8231:8248   */\n  and\n    /* \"#utility.yul\":8220:8229   */\n  dup3\n    /* \"#utility.yul\":8201:8249   */\n  tag_41\n  jump\t// in\ntag_144:\n    /* \"#utility.yul\":8193:8199   */\n  dup4\n    /* \"#utility.yul\":8186:8250   */\n  sstore\n    /* \"#utility.yul\":8108:8264   */\n  pop\n    /* \"#utility.yul\":8085:8264   */\ntag_143:\n    /* \"#utility.yul\":8310:8311   */\n  0x01\n    /* \"#utility.yul\":8306:8307   */\n  0x02\n    /* \"#utility.yul\":8298:8304   */\n  dup9\n    /* \"#utility.yul\":8294:8308   */\n  mul\n    /* \"#utility.yul\":8290:8312   */\n  add\n    /* \"#utility.yul\":8284:8288   */\n  dup9\n    /* \"#utility.yul\":8277:8313   */\n  sstore\n    /* \"#utility.yul\":7712:8323   */\n  pop\n  pop\n  pop\n    /* \"#utility.yul\":7675:8562   */\ntag_135:\n  pop\n    /* \"#utility.yul\":7265:8568   */\n  pop\n  pop\n  pop\n    /* \"#utility.yul\":7173:8568   */\n  pop\n  pop\n  jump\t// out\n    /* \"contracts/Example.sol\":63:2510  contract Example {... */\ntag_8:\n  dataSize(sub_0)\n  dup1\n  dataOffset(sub_0)\n  0x00\n  codecopy\n  0x00\n  return\nstop\n\nsub_0: assembly {\n        /* \"contracts/Example.sol\":63:2510  contract Example {... */\n      mstore(0x40, 0x80)\n      callvalue\n      dup1\n      iszero\n      tag_1\n      jumpi\n      revert(0x00, 0x00)\n    tag_1:\n      pop\n      jumpi(tag_2, lt(calldatasize, 0x04))\n      shr(0xe0, calldataload(0x00))\n      dup1\n      0x24b1cc13\n      eq\n      tag_3\n      jumpi\n      dup1\n      0x82b15f37\n      eq\n      tag_4\n      jumpi\n      dup1\n      0xb4c89bea\n      eq\n      tag_5\n      jumpi\n    tag_2:\n      revert(0x00, 0x00)\n        /* \"contracts/Example.sol\":2410:2507  function get_counter_value() external view returns(uint) {... */\n    tag_3:\n      tag_6\n      tag_7\n      jump\t// in\n    tag_6:\n      mload(0x40)\n      tag_8\n      swap2\n      swap1\n      tag_9\n      jump\t// in\n    tag_8:\n      mload(0x40)\n      dup1\n      swap2\n      sub\n      swap1\n      return\n        /* \"contracts/Example.sol\":1706:1792  function increment_counter() external onlyOwner {... */\n    tag_4:\n      tag_10\n      tag_11\n      jump\t// in\n    tag_10:\n      stop\n        /* \"contracts/Example.sol\":1908:1994  function decrement_counter() external onlyOwner {... */\n    tag_5:\n      tag_12\n      tag_13\n      jump\t// in\n    tag_12:\n      stop\n        /* \"contracts/Example.sol\":2410:2507  function get_counter_value() external view returns(uint) {... */\n    tag_7:\n        /* \"contracts/Example.sol\":2461:2465  uint */\n      0x00\n        /* \"contracts/Example.sol\":2485:2492  counter */\n      0x01\n        /* \"contracts/Example.sol\":2485:2499  counter.number */\n      0x00\n      add\n      sload\n        /* \"contracts/Example.sol\":2478:2499  return counter.number */\n      swap1\n      pop\n        /* \"contracts/Example.sol\":2410:2507  function get_counter_value() external view returns(uint) {... */\n      swap1\n      jump\t// out\n        /* \"contracts/Example.sol\":1706:1792  function increment_counter() external onlyOwner {... */\n    tag_11:\n        /* \"contracts/Example.sol\":735:740  owner */\n      0x00\n      0x00\n      swap1\n      sload\n      swap1\n      0x0100\n      exp\n      swap1\n      div\n      0xffffffffffffffffffffffffffffffffffffffff\n      and\n        /* \"contracts/Example.sol\":721:740  msg.sender == owner */\n      0xffffffffffffffffffffffffffffffffffffffff\n      and\n        /* \"contracts/Example.sol\":721:731  msg.sender */\n      caller\n        /* \"contracts/Example.sol\":721:740  msg.sender == owner */\n      0xffffffffffffffffffffffffffffffffffffffff\n      and\n      eq\n        /* \"contracts/Example.sol\":713:798  require(msg.sender == owner, \"Only the owner can increment or decrement the counter\") */\n      tag_16\n      jumpi\n      mload(0x40)\n      0x08c379a000000000000000000000000000000000000000000000000000000000\n      dup2\n      mstore\n      0x04\n      add\n      tag_17\n      swap1\n      tag_18\n      jump\t// in\n    tag_17:\n      mload(0x40)\n      dup1\n      swap2\n      sub\n      swap1\n      revert\n    tag_16:\n        /* \"contracts/Example.sol\":1783:1784  1 */\n      0x01\n        /* \"contracts/Example.sol\":1765:1772  counter */\n      dup1\n        /* \"contracts/Example.sol\":1765:1779  counter.number */\n      0x00\n      add\n      0x00\n        /* \"contracts/Example.sol\":1765:1784  counter.number += 1 */\n      dup3\n      dup3\n      sload\n      tag_20\n      swap2\n      swap1\n      tag_21\n      jump\t// in\n    tag_20:\n      swap3\n      pop\n      pop\n      dup2\n      swap1\n      sstore\n      pop\n        /* \"contracts/Example.sol\":1706:1792  function increment_counter() external onlyOwner {... */\n      jump\t// out\n        /* \"contracts/Example.sol\":1908:1994  function decrement_counter() external onlyOwner {... */\n    tag_13:\n        /* \"contracts/Example.sol\":735:740  owner */\n      0x00\n      0x00\n      swap1\n      sload\n      swap1\n      0x0100\n      exp\n      swap1\n      div\n      0xffffffffffffffffffffffffffffffffffffffff\n      and\n        /* \"contracts/Example.sol\":721:740  msg.sender == owner */\n      0xffffffffffffffffffffffffffffffffffffffff\n      and\n        /* \"contracts/Example.sol\":721:731  msg.sender */\n      caller\n        /* \"contracts/Example.sol\":721:740  msg.sender == owner */\n      0xffffffffffffffffffffffffffffffffffffffff\n      and\n      eq\n        /* \"contracts/Example.sol\":713:798  require(msg.sender == owner, \"Only the owner can increment or decrement the counter\") */\n      tag_23\n      jumpi\n      mload(0x40)\n      0x08c379a000000000000000000000000000000000000000000000000000000000\n      dup2\n      mstore\n      0x04\n      add\n      tag_24\n      swap1\n      tag_18\n      jump\t// in\n    tag_24:\n      mload(0x40)\n      dup1\n      swap2\n      sub\n      swap1\n      revert\n    tag_23:\n        /* \"contracts/Example.sol\":1985:1986  1 */\n      0x01\n        /* \"contracts/Example.sol\":1967:1974  counter */\n      dup1\n        /* \"contracts/Example.sol\":1967:1981  counter.number */\n      0x00\n      add\n      0x00\n        /* \"contracts/Example.sol\":1967:1986  counter.number -= 1 */\n      dup3\n      dup3\n      sload\n      tag_26\n      swap2\n      swap1\n      tag_27\n      jump\t// in\n    tag_26:\n      swap3\n      pop\n      pop\n      dup2\n      swap1\n      sstore\n      pop\n        /* \"contracts/Example.sol\":1908:1994  function decrement_counter() external onlyOwner {... */\n      jump\t// out\n        /* \"#utility.yul\":7:84   */\n    tag_28:\n        /* \"#utility.yul\":44:51   */\n      0x00\n        /* \"#utility.yul\":73:78   */\n      dup2\n        /* \"#utility.yul\":62:78   */\n      swap1\n      pop\n        /* \"#utility.yul\":7:84   */\n      swap2\n      swap1\n      pop\n      jump\t// out\n        /* \"#utility.yul\":90:208   */\n    tag_29:\n        /* \"#utility.yul\":177:201   */\n      tag_37\n        /* \"#utility.yul\":195:200   */\n      dup2\n        /* \"#utility.yul\":177:201   */\n      tag_28\n      jump\t// in\n    tag_37:\n        /* \"#utility.yul\":172:175   */\n      dup3\n        /* \"#utility.yul\":165:202   */\n      mstore\n        /* \"#utility.yul\":90:208   */\n      pop\n      pop\n      jump\t// out\n        /* \"#utility.yul\":214:436   */\n    tag_9:\n        /* \"#utility.yul\":307:311   */\n      0x00\n        /* \"#utility.yul\":345:347   */\n      0x20\n        /* \"#utility.yul\":334:343   */\n      dup3\n        /* \"#utility.yul\":330:348   */\n      add\n        /* \"#utility.yul\":322:348   */\n      swap1\n      pop\n        /* \"#utility.yul\":358:429   */\n      tag_39\n        /* \"#utility.yul\":426:427   */\n      0x00\n        /* \"#utility.yul\":415:424   */\n      dup4\n        /* \"#utility.yul\":411:428   */\n      add\n        /* \"#utility.yul\":402:408   */\n      dup5\n        /* \"#utility.yul\":358:429   */\n      tag_29\n      jump\t// in\n    tag_39:\n        /* \"#utility.yul\":214:436   */\n      swap3\n      swap2\n      pop\n      pop\n      jump\t// out\n        /* \"#utility.yul\":442:611   */\n    tag_30:\n        /* \"#utility.yul\":526:537   */\n      0x00\n        /* \"#utility.yul\":560:566   */\n      dup3\n        /* \"#utility.yul\":555:558   */\n      dup3\n        /* \"#utility.yul\":548:567   */\n      mstore\n        /* \"#utility.yul\":600:604   */\n      0x20\n        /* \"#utility.yul\":595:598   */\n      dup3\n        /* \"#utility.yul\":591:605   */\n      add\n        /* \"#utility.yul\":576:605   */\n      swap1\n      pop\n        /* \"#utility.yul\":442:611   */\n      swap3\n      swap2\n      pop\n      pop\n      jump\t// out\n        /* \"#utility.yul\":617:857   */\n    tag_31:\n        /* \"#utility.yul\":757:791   */\n      0x4f6e6c7920746865206f776e65722063616e20696e6372656d656e74206f7220\n        /* \"#utility.yul\":753:754   */\n      0x00\n        /* \"#utility.yul\":745:751   */\n      dup3\n        /* \"#utility.yul\":741:755   */\n      add\n        /* \"#utility.yul\":734:792   */\n      mstore\n        /* \"#utility.yul\":826:849   */\n      0x64656372656d656e742074686520636f756e7465720000000000000000000000\n        /* \"#utility.yul\":821:823   */\n      0x20\n        /* \"#utility.yul\":813:819   */\n      dup3\n        /* \"#utility.yul\":809:824   */\n      add\n        /* \"#utility.yul\":802:850   */\n      mstore\n        /* \"#utility.yul\":617:857   */\n      pop\n      jump\t// out\n        /* \"#utility.yul\":863:1229   */\n    tag_32:\n        /* \"#utility.yul\":1005:1008   */\n      0x00\n        /* \"#utility.yul\":1026:1093   */\n      tag_43\n        /* \"#utility.yul\":1090:1092   */\n      0x35\n        /* \"#utility.yul\":1085:1088   */\n      dup4\n        /* \"#utility.yul\":1026:1093   */\n      tag_30\n      jump\t// in\n    tag_43:\n        /* \"#utility.yul\":1019:1093   */\n      swap2\n      pop\n        /* \"#utility.yul\":1102:1195   */\n      tag_44\n        /* \"#utility.yul\":1191:1194   */\n      dup3\n        /* \"#utility.yul\":1102:1195   */\n      tag_31\n      jump\t// in\n    tag_44:\n        /* \"#utility.yul\":1220:1222   */\n      0x40\n        /* \"#utility.yul\":1215:1218   */\n      dup3\n        /* \"#utility.yul\":1211:1223   */\n      add\n        /* \"#utility.yul\":1204:1223   */\n      swap1\n      pop\n        /* \"#utility.yul\":863:1229   */\n      swap2\n      swap1\n      pop\n      jump\t// out\n        /* \"#utility.yul\":1235:1654   */\n    tag_18:\n        /* \"#utility.yul\":1401:1405   */\n      0x00\n        /* \"#utility.yul\":1439:1441   */\n      0x20\n        /* \"#utility.yul\":1428:1437   */\n      dup3\n        /* \"#utility.yul\":1424:1442   */\n      add\n        /* \"#utility.yul\":1416:1442   */\n      swap1\n      pop\n        /* \"#utility.yul\":1488:1497   */\n      dup2\n        /* \"#utility.yul\":1482:1486   */\n      dup2\n        /* \"#utility.yul\":1478:1498   */\n      sub\n        /* \"#utility.yul\":1474:1475   */\n      0x00\n        /* \"#utility.yul\":1463:1472   */\n      dup4\n        /* \"#utility.yul\":1459:1476   */\n      add\n        /* \"#utility.yul\":1452:1499   */\n      mstore\n        /* \"#utility.yul\":1516:1647   */\n      tag_46\n        /* \"#utility.yul\":1642:1646   */\n      dup2\n        /* \"#utility.yul\":1516:1647   */\n      tag_32\n      jump\t// in\n    tag_46:\n        /* \"#utility.yul\":1508:1647   */\n      swap1\n      pop\n        /* \"#utility.yul\":1235:1654   */\n      swap2\n      swap1\n      pop\n      jump\t// out\n        /* \"#utility.yul\":1660:1840   */\n    tag_33:\n        /* \"#utility.yul\":1708:1785   */\n      0x4e487b7100000000000000000000000000000000000000000000000000000000\n        /* \"#utility.yul\":1705:1706   */\n      0x00\n        /* \"#utility.yul\":1698:1786   */\n      mstore\n        /* \"#utility.yul\":1805:1809   */\n      0x11\n        /* \"#utility.yul\":1802:1803   */\n      0x04\n        /* \"#utility.yul\":1795:1810   */\n      mstore\n        /* \"#utility.yul\":1829:1833   */\n      0x24\n        /* \"#utility.yul\":1826:1827   */\n      0x00\n        /* \"#utility.yul\":1819:1834   */\n      revert\n        /* \"#utility.yul\":1846:2037   */\n    tag_21:\n        /* \"#utility.yul\":1886:1889   */\n      0x00\n        /* \"#utility.yul\":1905:1925   */\n      tag_49\n        /* \"#utility.yul\":1923:1924   */\n      dup3\n        /* \"#utility.yul\":1905:1925   */\n      tag_28\n      jump\t// in\n    tag_49:\n        /* \"#utility.yul\":1900:1925   */\n      swap2\n      pop\n        /* \"#utility.yul\":1939:1959   */\n      tag_50\n        /* \"#utility.yul\":1957:1958   */\n      dup4\n        /* \"#utility.yul\":1939:1959   */\n      tag_28\n      jump\t// in\n    tag_50:\n        /* \"#utility.yul\":1934:1959   */\n      swap3\n      pop\n        /* \"#utility.yul\":1982:1983   */\n      dup3\n        /* \"#utility.yul\":1979:1980   */\n      dup3\n        /* \"#utility.yul\":1975:1984   */\n      add\n        /* \"#utility.yul\":1968:1984   */\n      swap1\n      pop\n        /* \"#utility.yul\":2003:2006   */\n      dup1\n        /* \"#utility.yul\":2000:2001   */\n      dup3\n        /* \"#utility.yul\":1997:2007   */\n      gt\n        /* \"#utility.yul\":1994:2030   */\n      iszero\n      tag_51\n      jumpi\n        /* \"#utility.yul\":2010:2028   */\n      tag_52\n      tag_33\n      jump\t// in\n    tag_52:\n        /* \"#utility.yul\":1994:2030   */\n    tag_51:\n        /* \"#utility.yul\":1846:2037   */\n      swap3\n      swap2\n      pop\n      pop\n      jump\t// out\n        /* \"#utility.yul\":2043:2237   */\n    tag_27:\n        /* \"#utility.yul\":2083:2087   */\n      0x00\n        /* \"#utility.yul\":2103:2123   */\n      tag_54\n        /* \"#utility.yul\":2121:2122   */\n      dup3\n        /* \"#utility.yul\":2103:2123   */\n      tag_28\n      jump\t// in\n    tag_54:\n        /* \"#utility.yul\":2098:2123   */\n      swap2\n      pop\n        /* \"#utility.yul\":2137:2157   */\n      tag_55\n        /* \"#utility.yul\":2155:2156   */\n      dup4\n        /* \"#utility.yul\":2137:2157   */\n      tag_28\n      jump\t// in\n    tag_55:\n        /* \"#utility.yul\":2132:2157   */\n      swap3\n      pop\n        /* \"#utility.yul\":2181:2182   */\n      dup3\n        /* \"#utility.yul\":2178:2179   */\n      dup3\n        /* \"#utility.yul\":2174:2183   */\n      sub\n        /* \"#utility.yul\":2166:2183   */\n      swap1\n      pop\n        /* \"#utility.yul\":2205:2206   */\n      dup2\n        /* \"#utility.yul\":2199:2203   */\n      dup2\n        /* \"#utility.yul\":2196:2207   */\n      gt\n        /* \"#utility.yul\":2193:2230   */\n      iszero\n      tag_56\n      jumpi\n        /* \"#utility.yul\":2210:2228   */\n      tag_57\n      tag_33\n      jump\t// in\n    tag_57:\n        /* \"#utility.yul\":2193:2230   */\n    tag_56:\n        /* \"#utility.yul\":2043:2237   */\n      swap3\n      swap2\n      pop\n      pop\n      jump\t// out\n\n    auxdata: 0xa2646970667358221220cfcf0a69293bd2a121cfb516425f958ebd762cd1d178b4093a58b57ceb626fe764736f6c634300081e0033\n}\n",
				"bytecode": {
					"linkReferences": {},
					"object": "608060405234801561000f575f5ffd5b506040516108d83803806108d88339818101604052810190610031919061022f565b335f5f6101000a81548173ffffffffffffffffffffffffffffffffffffffff021916908373ffffffffffffffffffffffffffffffffffffffff16021790555060405180604001604052808381526020018281525060015f820151815f015560208201518160010190816100a49190610490565b50905050505061055f565b5f604051905090565b5f5ffd5b5f5ffd5b5f819050919050565b6100d2816100c0565b81146100dc575f5ffd5b50565b5f815190506100ed816100c9565b92915050565b5f5ffd5b5f5ffd5b5f601f19601f8301169050919050565b7f4e487b71000000000000000000000000000000000000000000000000000000005f52604160045260245ffd5b610141826100fb565b810181811067ffffffffffffffff821117156101605761015f61010b565b5b80604052505050565b5f6101726100af565b905061017e8282610138565b919050565b5f67ffffffffffffffff82111561019d5761019c61010b565b5b6101a6826100fb565b9050602081019050919050565b8281835e5f83830152505050565b5f6101d36101ce84610183565b610169565b9050828152602081018484840111156101ef576101ee6100f7565b5b6101fa8482856101b3565b509392505050565b5f82601f830112610216576102156100f3565b5b81516102268482602086016101c1565b91505092915050565b5f5f60408385031215610245576102446100b8565b5b5f610252858286016100df565b925050602083015167ffffffffffffffff811115610273576102726100bc565b5b61027f85828601610202565b9150509250929050565b5f81519050919050565b7f4e487b71000000000000000000000000000000000000000000000000000000005f52602260045260245ffd5b5f60028204905060018216806102d757607f821691505b6020821081036102ea576102e9610293565b5b50919050565b5f819050815f5260205f209050919050565b5f6020601f8301049050919050565b5f82821b905092915050565b5f6008830261034c7fffffffffffffffffffffffffffffffffffffffffffffffffffffffffffffffff82610311565b6103568683610311565b95508019841693508086168417925050509392505050565b5f819050919050565b5f61039161038c610387846100c0565b61036e565b6100c0565b9050919050565b5f819050919050565b6103aa83610377565b6103be6103b682610398565b84845461031d565b825550505050565b5f5f905090565b6103d56103c6565b6103e08184846103a1565b505050565b5b81811015610403576103f85f826103cd565b6001810190506103e6565b5050565b601f82111561044857610419816102f0565b61042284610302565b81016020851015610431578190505b61044561043d85610302565b8301826103e5565b50505b505050565b5f82821c905092915050565b5f6104685f198460080261044d565b1980831691505092915050565b5f6104808383610459565b9150826002028217905092915050565b61049982610289565b67ffffffffffffffff8111156104b2576104b161010b565b5b6104bc82546102c0565b6104c7828285610407565b5f60209050601f8311600181146104f8575f84156104e6578287015190505b6104f08582610475565b865550610557565b601f198416610506866102f0565b5f5b8281101561052d57848901518255600182019150602085019450602081019050610508565b8683101561054a5784890151610546601f891682610459565b8355505b6001600288020188555050505b505050505050565b61036c8061056c5f395ff3fe608060405234801561000f575f5ffd5b506004361061003f575f3560e01c806324b1cc131461004357806382b15f3714610061578063b4c89bea1461006b575b5f5ffd5b61004b610075565b60405161005891906101ec565b60405180910390f35b610069610080565b005b61007361012a565b005b5f60015f0154905090565b5f5f9054906101000a900473ffffffffffffffffffffffffffffffffffffffff1673ffffffffffffffffffffffffffffffffffffffff163373ffffffffffffffffffffffffffffffffffffffff161461010e576040517f08c379a000000000000000000000000000000000000000000000000000000000815260040161010590610285565b60405180910390fd5b6001805f015f82825461012191906102d0565b92505081905550565b5f5f9054906101000a900473ffffffffffffffffffffffffffffffffffffffff1673ffffffffffffffffffffffffffffffffffffffff163373ffffffffffffffffffffffffffffffffffffffff16146101b8576040517f08c379a00000000000000000000000000000000000000000000000000000000081526004016101af90610285565b60405180910390fd5b6001805f015f8282546101cb9190610303565b92505081905550565b5f819050919050565b6101e6816101d4565b82525050565b5f6020820190506101ff5f8301846101dd565b92915050565b5f82825260208201905092915050565b7f4f6e6c7920746865206f776e65722063616e20696e6372656d656e74206f72205f8201527f64656372656d656e742074686520636f756e7465720000000000000000000000602082015250565b5f61026f603583610205565b915061027a82610215565b604082019050919050565b5f6020820190508181035f83015261029c81610263565b9050919050565b7f4e487b71000000000000000000000000000000000000000000000000000000005f52601160045260245ffd5b5f6102da826101d4565b91506102e5836101d4565b92508282019050808211156102fd576102fc6102a3565b5b92915050565b5f61030d826101d4565b9150610318836101d4565b92508282039050818111156103305761032f6102a3565b5b9291505056fea2646970667358221220cfcf0a69293bd2a121cfb516425f958ebd762cd1d178b4093a58b57ceb626fe764736f6c634300081e0033",
					"opcodes": "PUSH1 0x80 PUSH1 0x40 MSTORE CALLVALUE DUP1 ISZERO PUSH2 0xF JUMPI PUSH0 PUSH0 REVERT JUMPDEST POP PUSH1 0x40 MLOAD PUSH2 0x8D8 CODESIZE SUB DUP1 PUSH2 0x8D8 DUP4 CODECOPY DUP2 DUP2 ADD PUSH1 0x40 MSTORE DUP2 ADD SWAP1 PUSH2 0x31 SWAP2 SWAP1 PUSH2 0x22F JUMP JUMPDEST CALLER PUSH0 PUSH0 PUSH2 0x100 EXP DUP2 SLOAD DUP2 PUSH20 0xFFFFFFFFFFFFFFFFFFFFFFFFFFFFFFFFFFFFFFFF MUL NOT AND SWAP1 DUP4 PUSH20 0xFFFFFFFFFFFFFFFFFFFFFFFFFFFFFFFFFFFFFFFF AND MUL OR SWAP1 SSTORE POP PUSH1 0x40 MLOAD DUP1 PUSH1 0x40 ADD PUSH1 0x40 MSTORE DUP1 DUP4 DUP2 MSTORE PUSH1 0x20 ADD DUP3 DUP2 MSTORE POP PUSH1 0x1 PUSH0 DUP3 ADD MLOAD DUP2 PUSH0 ADD SSTORE PUSH1 0x20 DUP3 ADD MLOAD DUP2 PUSH1 0x1 ADD SWAP1 DUP2 PUSH2 0xA4 SWAP2 SWAP1 PUSH2 0x490 JUMP JUMPDEST POP SWAP1 POP POP POP POP PUSH2 0x55F JUMP JUMPDEST PUSH0 PUSH1 0x40 MLOAD SWAP1 POP SWAP1 JUMP JUMPDEST PUSH0 PUSH0 REVERT JUMPDEST PUSH0 PUSH0 REVERT JUMPDEST PUSH0 DUP2 SWAP1 POP SWAP2 SWAP1 POP JUMP JUMPDEST PUSH2 0xD2 DUP2 PUSH2 0xC0 JUMP JUMPDEST DUP2 EQ PUSH2 0xDC JUMPI PUSH0 PUSH0 REVERT JUMPDEST POP JUMP JUMPDEST PUSH0 DUP2 MLOAD SWAP1 POP PUSH2 0xED DUP2 PUSH2 0xC9 JUMP JUMPDEST SWAP3 SWAP2 POP POP JUMP JUMPDEST PUSH0 PUSH0 REVERT JUMPDEST PUSH0 PUSH0 REVERT JUMPDEST PUSH0 PUSH1 0x1F NOT PUSH1 0x1F DUP4 ADD AND SWAP1 POP SWAP2 SWAP1 POP JUMP JUMPDEST PUSH32 0x4E487B7100000000000000000000000000000000000000000000000000000000 PUSH0 MSTORE PUSH1 0x41 PUSH1 0x4 MSTORE PUSH1 0x24 PUSH0 REVERT JUMPDEST PUSH2 0x141 DUP3 PUSH2 0xFB JUMP JUMPDEST DUP2 ADD DUP2 DUP2 LT PUSH8 0xFFFFFFFFFFFFFFFF DUP3 GT OR ISZERO PUSH2 0x160 JUMPI PUSH2 0x15F PUSH2 0x10B JUMP JUMPDEST JUMPDEST DUP1 PUSH1 0x40 MSTORE POP POP POP JUMP JUMPDEST PUSH0 PUSH2 0x172 PUSH2 0xAF JUMP JUMPDEST SWAP1 POP PUSH2 0x17E DUP3 DUP3 PUSH2 0x138 JUMP JUMPDEST SWAP2 SWAP1 POP JUMP JUMPDEST PUSH0 PUSH8 0xFFFFFFFFFFFFFFFF DUP3 GT ISZERO PUSH2 0x19D JUMPI PUSH2 0x19C PUSH2 0x10B JUMP JUMPDEST JUMPDEST PUSH2 0x1A6 DUP3 PUSH2 0xFB JUMP JUMPDEST SWAP1 POP PUSH1 0x20 DUP2 ADD SWAP1 POP SWAP2 SWAP1 POP JUMP JUMPDEST DUP3 DUP2 DUP4 MCOPY PUSH0 DUP4 DUP4 ADD MSTORE POP POP POP JUMP JUMPDEST PUSH0 PUSH2 0x1D3 PUSH2 0x1CE DUP5 PUSH2 0x183 JUMP JUMPDEST PUSH2 0x169 JUMP JUMPDEST SWAP1 POP DUP3 DUP2 MSTORE PUSH1 0x20 DUP2 ADD DUP5 DUP5 DUP5 ADD GT ISZERO PUSH2 0x1EF JUMPI PUSH2 0x1EE PUSH2 0xF7 JUMP JUMPDEST JUMPDEST PUSH2 0x1FA DUP5 DUP3 DUP6 PUSH2 0x1B3 JUMP JUMPDEST POP SWAP4 SWAP3 POP POP POP JUMP JUMPDEST PUSH0 DUP3 PUSH1 0x1F DUP4 ADD SLT PUSH2 0x216 JUMPI PUSH2 0x215 PUSH2 0xF3 JUMP JUMPDEST JUMPDEST DUP2 MLOAD PUSH2 0x226 DUP5 DUP3 PUSH1 0x20 DUP7 ADD PUSH2 0x1C1 JUMP JUMPDEST SWAP2 POP POP SWAP3 SWAP2 POP POP JUMP JUMPDEST PUSH0 PUSH0 PUSH1 0x40 DUP4 DUP6 SUB SLT ISZERO PUSH2 0x245 JUMPI PUSH2 0x244 PUSH2 0xB8 JUMP JUMPDEST JUMPDEST PUSH0 PUSH2 0x252 DUP6 DUP3 DUP7 ADD PUSH2 0xDF JUMP JUMPDEST SWAP3 POP POP PUSH1 0x20 DUP4 ADD MLOAD PUSH8 0xFFFFFFFFFFFFFFFF DUP2 GT ISZERO PUSH2 0x273 JUMPI PUSH2 0x272 PUSH2 0xBC JUMP JUMPDEST JUMPDEST PUSH2 0x27F DUP6 DUP3 DUP7 ADD PUSH2 0x202 JUMP JUMPDEST SWAP2 POP POP SWAP3 POP SWAP3 SWAP1 POP JUMP JUMPDEST PUSH0 DUP2 MLOAD SWAP1 POP SWAP2 SWAP1 POP JUMP JUMPDEST PUSH32 0x4E487B7100000000000000000000000000000000000000000000000000000000 PUSH0 MSTORE PUSH1 0x22 PUSH1 0x4 MSTORE PUSH1 0x24 PUSH0 REVERT JUMPDEST PUSH0 PUSH1 0x2 DUP3 DIV SWAP1 POP PUSH1 0x1 DUP3 AND DUP1 PUSH2 0x2D7 JUMPI PUSH1 0x7F DUP3 AND SWAP2 POP JUMPDEST PUSH1 0x20 DUP3 LT DUP2 SUB PUSH2 0x2EA JUMPI PUSH2 0x2E9 PUSH2 0x293 JUMP JUMPDEST JUMPDEST POP SWAP2 SWAP1 POP JUMP JUMPDEST PUSH0 DUP2 SWAP1 POP DUP2 PUSH0 MSTORE PUSH1 0x20 PUSH0 KECCAK256 SWAP1 POP SWAP2 SWAP1 POP JUMP JUMPDEST PUSH0 PUSH1 0x20 PUSH1 0x1F DUP4 ADD DIV SWAP1 POP SWAP2 SWAP1 POP JUMP JUMPDEST PUSH0 DUP3 DUP3 SHL SWAP1 POP SWAP3 SWAP2 POP POP JUMP JUMPDEST PUSH0 PUSH1 0x8 DUP4 MUL PUSH2 0x34C PUSH32 0xFFFFFFFFFFFFFFFFFFFFFFFFFFFFFFFFFFFFFFFFFFFFFFFFFFFFFFFFFFFFFFFF DUP3 PUSH2 0x311 JUMP JUMPDEST PUSH2 0x356 DUP7 DUP4 PUSH2 0x311 JUMP JUMPDEST SWAP6 POP DUP1 NOT DUP5 AND SWAP4 POP DUP1 DUP7 AND DUP5 OR SWAP3 POP POP POP SWAP4 SWAP3 POP POP POP JUMP JUMPDEST PUSH0 DUP2 SWAP1 POP SWAP2 SWAP1 POP JUMP JUMPDEST PUSH0 PUSH2 0x391 PUSH2 0x38C PUSH2 0x387 DUP5 PUSH2 0xC0 JUMP JUMPDEST PUSH2 0x36E JUMP JUMPDEST PUSH2 0xC0 JUMP JUMPDEST SWAP1 POP SWAP2 SWAP1 POP JUMP JUMPDEST PUSH0 DUP2 SWAP1 POP SWAP2 SWAP1 POP JUMP JUMPDEST PUSH2 0x3AA DUP4 PUSH2 0x377 JUMP JUMPDEST PUSH2 0x3BE PUSH2 0x3B6 DUP3 PUSH2 0x398 JUMP JUMPDEST DUP5 DUP5 SLOAD PUSH2 0x31D JUMP JUMPDEST DUP3 SSTORE POP POP POP POP JUMP JUMPDEST PUSH0 PUSH0 SWAP1 POP SWAP1 JUMP JUMPDEST PUSH2 0x3D5 PUSH2 0x3C6 JUMP JUMPDEST PUSH2 0x3E0 DUP2 DUP5 DUP5 PUSH2 0x3A1 JUMP JUMPDEST POP POP POP JUMP JUMPDEST JUMPDEST DUP2 DUP2 LT ISZERO PUSH2 0x403 JUMPI PUSH2 0x3F8 PUSH0 DUP3 PUSH2 0x3CD JUMP JUMPDEST PUSH1 0x1 DUP2 ADD SWAP1 POP PUSH2 0x3E6 JUMP JUMPDEST POP POP JUMP JUMPDEST PUSH1 0x1F DUP3 GT ISZERO PUSH2 0x448 JUMPI PUSH2 0x419 DUP2 PUSH2 0x2F0 JUMP JUMPDEST PUSH2 0x422 DUP5 PUSH2 0x302 JUMP JUMPDEST DUP2 ADD PUSH1 0x20 DUP6 LT ISZERO PUSH2 0x431 JUMPI DUP2 SWAP1 POP JUMPDEST PUSH2 0x445 PUSH2 0x43D DUP6 PUSH2 0x302 JUMP JUMPDEST DUP4 ADD DUP3 PUSH2 0x3E5 JUMP JUMPDEST POP POP JUMPDEST POP POP POP JUMP JUMPDEST PUSH0 DUP3 DUP3 SHR SWAP1 POP SWAP3 SWAP2 POP POP JUMP JUMPDEST PUSH0 PUSH2 0x468 PUSH0 NOT DUP5 PUSH1 0x8 MUL PUSH2 0x44D JUMP JUMPDEST NOT DUP1 DUP4 AND SWAP2 POP POP SWAP3 SWAP2 POP POP JUMP JUMPDEST PUSH0 PUSH2 0x480 DUP4 DUP4 PUSH2 0x459 JUMP JUMPDEST SWAP2 POP DUP3 PUSH1 0x2 MUL DUP3 OR SWAP1 POP SWAP3 SWAP2 POP POP JUMP JUMPDEST PUSH2 0x499 DUP3 PUSH2 0x289 JUMP JUMPDEST PUSH8 0xFFFFFFFFFFFFFFFF DUP2 GT ISZERO PUSH2 0x4B2 JUMPI PUSH2 0x4B1 PUSH2 0x10B JUMP JUMPDEST JUMPDEST PUSH2 0x4BC DUP3 SLOAD PUSH2 0x2C0 JUMP JUMPDEST PUSH2 0x4C7 DUP3 DUP3 DUP6 PUSH2 0x407 JUMP JUMPDEST PUSH0 PUSH1 0x20 SWAP1 POP PUSH1 0x1F DUP4 GT PUSH1 0x1 DUP2 EQ PUSH2 0x4F8 JUMPI PUSH0 DUP5 ISZERO PUSH2 0x4E6 JUMPI DUP3 DUP8 ADD MLOAD SWAP1 POP JUMPDEST PUSH2 0x4F0 DUP6 DUP3 PUSH2 0x475 JUMP JUMPDEST DUP7 SSTORE POP PUSH2 0x557 JUMP JUMPDEST PUSH1 0x1F NOT DUP5 AND PUSH2 0x506 DUP7 PUSH2 0x2F0 JUMP JUMPDEST PUSH0 JUMPDEST DUP3 DUP2 LT ISZERO PUSH2 0x52D JUMPI DUP5 DUP10 ADD MLOAD DUP3 SSTORE PUSH1 0x1 DUP3 ADD SWAP2 POP PUSH1 0x20 DUP6 ADD SWAP5 POP PUSH1 0x20 DUP2 ADD SWAP1 POP PUSH2 0x508 JUMP JUMPDEST DUP7 DUP4 LT ISZERO PUSH2 0x54A JUMPI DUP5 DUP10 ADD MLOAD PUSH2 0x546 PUSH1 0x1F DUP10 AND DUP3 PUSH2 0x459 JUMP JUMPDEST DUP4 SSTORE POP JUMPDEST PUSH1 0x1 PUSH1 0x2 DUP9 MUL ADD DUP9 SSTORE POP POP POP JUMPDEST POP POP POP POP POP POP JUMP JUMPDEST PUSH2 0x36C DUP1 PUSH2 0x56C PUSH0 CODECOPY PUSH0 RETURN INVALID PUSH1 0x80 PUSH1 0x40 MSTORE CALLVALUE DUP1 ISZERO PUSH2 0xF JUMPI PUSH0 PUSH0 REVERT JUMPDEST POP PUSH1 0x4 CALLDATASIZE LT PUSH2 0x3F JUMPI PUSH0 CALLDATALOAD PUSH1 0xE0 SHR DUP1 PUSH4 0x24B1CC13 EQ PUSH2 0x43 JUMPI DUP1 PUSH4 0x82B15F37 EQ PUSH2 0x61 JUMPI DUP1 PUSH4 0xB4C89BEA EQ PUSH2 0x6B JUMPI JUMPDEST PUSH0 PUSH0 REVERT JUMPDEST PUSH2 0x4B PUSH2 0x75 JUMP JUMPDEST PUSH1 0x40 MLOAD PUSH2 0x58 SWAP2 SWAP1 PUSH2 0x1EC JUMP JUMPDEST PUSH1 0x40 MLOAD DUP1 SWAP2 SUB SWAP1 RETURN JUMPDEST PUSH2 0x69 PUSH2 0x80 JUMP JUMPDEST STOP JUMPDEST PUSH2 0x73 PUSH2 0x12A JUMP JUMPDEST STOP JUMPDEST PUSH0 PUSH1 0x1 PUSH0 ADD SLOAD SWAP1 POP SWAP1 JUMP JUMPDEST PUSH0 PUSH0 SWAP1 SLOAD SWAP1 PUSH2 0x100 EXP SWAP1 DIV PUSH20 0xFFFFFFFFFFFFFFFFFFFFFFFFFFFFFFFFFFFFFFFF AND PUSH20 0xFFFFFFFFFFFFFFFFFFFFFFFFFFFFFFFFFFFFFFFF AND CALLER PUSH20 0xFFFFFFFFFFFFFFFFFFFFFFFFFFFFFFFFFFFFFFFF AND EQ PUSH2 0x10E JUMPI PUSH1 0x40 MLOAD PUSH32 0x8C379A000000000000000000000000000000000000000000000000000000000 DUP2 MSTORE PUSH1 0x4 ADD PUSH2 0x105 SWAP1 PUSH2 0x285 JUMP JUMPDEST PUSH1 0x40 MLOAD DUP1 SWAP2 SUB SWAP1 REVERT JUMPDEST PUSH1 0x1 DUP1 PUSH0 ADD PUSH0 DUP3 DUP3 SLOAD PUSH2 0x121 SWAP2 SWAP1 PUSH2 0x2D0 JUMP JUMPDEST SWAP3 POP POP DUP2 SWAP1 SSTORE POP JUMP JUMPDEST PUSH0 PUSH0 SWAP1 SLOAD SWAP1 PUSH2 0x100 EXP SWAP1 DIV PUSH20 0xFFFFFFFFFFFFFFFFFFFFFFFFFFFFFFFFFFFFFFFF AND PUSH20 0xFFFFFFFFFFFFFFFFFFFFFFFFFFFFFFFFFFFFFFFF AND CALLER PUSH20 0xFFFFFFFFFFFFFFFFFFFFFFFFFFFFFFFFFFFFFFFF AND EQ PUSH2 0x1B8 JUMPI PUSH1 0x40 MLOAD PUSH32 0x8C379A000000000000000000000000000000000000000000000000000000000 DUP2 MSTORE PUSH1 0x4 ADD PUSH2 0x1AF SWAP1 PUSH2 0x285 JUMP JUMPDEST PUSH1 0x40 MLOAD DUP1 SWAP2 SUB SWAP1 REVERT JUMPDEST PUSH1 0x1 DUP1 PUSH0 ADD PUSH0 DUP3 DUP3 SLOAD PUSH2 0x1CB SWAP2 SWAP1 PUSH2 0x303 JUMP JUMPDEST SWAP3 POP POP DUP2 SWAP1 SSTORE POP JUMP JUMPDEST PUSH0 DUP2 SWAP1 POP SWAP2 SWAP1 POP JUMP JUMPDEST PUSH2 0x1E6 DUP2 PUSH2 0x1D4 JUMP JUMPDEST DUP3 MSTORE POP POP JUMP JUMPDEST PUSH0 PUSH1 0x20 DUP3 ADD SWAP1 POP PUSH2 0x1FF PUSH0 DUP4 ADD DUP5 PUSH2 0x1DD JUMP JUMPDEST SWAP3 SWAP2 POP POP JUMP JUMPDEST PUSH0 DUP3 DUP3 MSTORE PUSH1 0x20 DUP3 ADD SWAP1 POP SWAP3 SWAP2 POP POP JUMP JUMPDEST PUSH32 0x4F6E6C7920746865206F776E65722063616E20696E6372656D656E74206F7220 PUSH0 DUP3 ADD MSTORE PUSH32 0x64656372656D656E742074686520636F756E7465720000000000000000000000 PUSH1 0x20 DUP3 ADD MSTORE POP JUMP JUMPDEST PUSH0 PUSH2 0x26F PUSH1 0x35 DUP4 PUSH2 0x205 JUMP JUMPDEST SWAP2 POP PUSH2 0x27A DUP3 PUSH2 0x215 JUMP JUMPDEST PUSH1 0x40 DUP3 ADD SWAP1 POP SWAP2 SWAP1 POP JUMP JUMPDEST PUSH0 PUSH1 0x20 DUP3 ADD SWAP1 POP DUP2 DUP2 SUB PUSH0 DUP4 ADD MSTORE PUSH2 0x29C DUP2 PUSH2 0x263 JUMP JUMPDEST SWAP1 POP SWAP2 SWAP1 POP JUMP JUMPDEST PUSH32 0x4E487B7100000000000000000000000000000000000000000000000000000000 PUSH0 MSTORE PUSH1 0x11 PUSH1 0x4 MSTORE PUSH1 0x24 PUSH0 REVERT JUMPDEST PUSH0 PUSH2 0x2DA DUP3 PUSH2 0x1D4 JUMP JUMPDEST SWAP2 POP PUSH2 0x2E5 DUP4 PUSH2 0x1D4 JUMP JUMPDEST SWAP3 POP DUP3 DUP3 ADD SWAP1 POP DUP1 DUP3 GT ISZERO PUSH2 0x2FD JUMPI PUSH2 0x2FC PUSH2 0x2A3 JUMP JUMPDEST JUMPDEST SWAP3 SWAP2 POP POP JUMP JUMPDEST PUSH0 PUSH2 0x30D DUP3 PUSH2 0x1D4 JUMP JUMPDEST SWAP2 POP PUSH2 0x318 DUP4 PUSH2 0x1D4 JUMP JUMPDEST SWAP3 POP DUP3 DUP3 SUB SWAP1 POP DUP2 DUP2 GT ISZERO PUSH2 0x330 JUMPI PUSH2 0x32F PUSH2 0x2A3 JUMP JUMPDEST JUMPDEST SWAP3 SWAP2 POP POP JUMP INVALID LOG2 PUSH5 0x6970667358 0x22 SLT KECCAK256 0xCF 0xCF EXP PUSH10 0x293BD2A121CFB516425F SWAP6 DUP15 0xBD PUSH23 0x2CD1D178B4093A58B57CEB626FE764736F6C634300081E STOP CALLER "
				},
				"gasEstimates": {
					"creation": {
						"codeDepositCost": "175200",
						"executionCost": "infinite",
						"totalCost": "infinite"
					},
					"external": {
						"decrement_counter()": "infinite",
						"get_counter_value()": "2415",
						"increment_counter()": "infinite"
					}
				},
				"methodIdentifiers": {
					"decrement_counter()": "b4c89bea",
					"get_counter_value()": "24b1cc13",
					"increment_counter()": "82b15f37"
				}
			},
			"storageLayout": {
				"storage": [
					{
						"astId": 3,
						"contract": "contracts/Example.sol:Example",
						"label": "owner",
						"offset": 0,
						"slot": "0",
						"type": "t_address"
					},
					{
						"astId": 11,
						"contract": "contracts/Example.sol:Example",
						"label": "counter",
						"offset": 0,
						"slot": "1",
						"type": "t_struct(Counter)8_storage"
					}
				],
				"types": {
					"t_address": {
						"encoding": "inplace",
						"label": "address",
						"numberOfBytes": "20"
					},
					"t_string_storage": {
						"encoding": "bytes",
						"label": "string",
						"numberOfBytes": "32"
					},
					"t_struct(Counter)8_storage": {
						"encoding": "inplace",
						"label": "struct Example.Counter",
						"members": [
							{
								"astId": 5,
								"contract": "contracts/Example.sol:Example",
								"label": "number",
								"offset": 0,
								"slot": "0",
								"type": "t_uint256"
							},
							{
								"astId": 7,
								"contract": "contracts/Example.sol:Example",
								"label": "description",
								"offset": 0,
								"slot": "1",
								"type": "t_string_storage"
							}
						],
						"numberOfBytes": "64"
					},
					"t_uint256": {
						"encoding": "inplace",
						"label": "uint256",
						"numberOfBytes": "32"
					}
				}
			},
			"userdoc": {
				"kind": "user",
				"methods": {},
				"version": 1
			}
		}
	}
}