{
	"data": {
		"bytecode": {
			"linkReferences": {},
			"object": "6080604052348015600e575f5ffd5b50335f5f6101000a81548173ffffffffffffffffffffffffffffffffffffffff021916908373ffffffffffffffffffffffffffffffffffffffff160217905550600333908060018154018082558091505060019003905f5260205f20015f9091909190916101000a81548173ffffffffffffffffffffffffffffffffffffffff021916908373ffffffffffffffffffffffffffffffffffffffff1602179055506113b2806100bb5f395ff3fe608060405234801561000f575f5ffd5b506004361061007b575f3560e01c8063b3f98adc11610059578063b3f98adc146100d5578063c7f758a8146100f1578063cbff75cb14610121578063dbddc7aa146101515761007b565b806313af40351461007f57806341ec68701461009b57806346f81a87146100b9575b5f5ffd5b61009960048036038101906100949190610b9c565b61015b565b005b6100a36101f4565b6040516100b09190610d02565b60405180910390f35b6100d360048036038101906100ce9190610dad565b61030b565b005b6100ef60048036038101906100ea9190610e40565b61048b565b005b61010b60048036038101906101069190610e6b565b610759565b6040516101189190610d02565b60405180910390f35b61013b60048036038101906101369190610b9c565b610870565b6040516101489190610ea5565b60405180910390f35b610159610912565b005b5f5f9054906101000a900473ffffffffffffffffffffffffffffffffffffffff1673ffffffffffffffffffffffffffffffffffffffff163373ffffffffffffffffffffffffffffffffffffffff16146101b2575f5ffd5b805f5f6101000a81548173ffffffffffffffffffffffffffffffffffffffff021916908373ffffffffffffffffffffffffffffffffffffffff16021790555050565b6101fc610a5d565b60025f60015481526020019081526020015f206040518060e00160405290815f8201805461022990610eeb565b80601f016020809104026020016040519081016040528092919081815260200182805461025590610eeb565b80156102a05780601f10610277576101008083540402835291602001916102a0565b820191905f5260205f20905b81548152906001019060200180831161028357829003601f168201915b5050505050815260200160018201548152602001600282015481526020016003820154815260200160048201548152602001600582015f9054906101000a900460ff161515151581526020016005820160019054906101000a900460ff161515151581525050905090565b5f5f9054906101000a900473ffffffffffffffffffffffffffffffffffffffff1673ffffffffffffffffffffffffffffffffffffffff163373ffffffffffffffffffffffffffffffffffffffff1614610362575f5ffd5b6001805f8282546103739190610f48565b925050819055506040518060e0016040528084848080601f0160208091040260200160405190810160405280939291908181526020018383808284375f81840152601f19601f8201169050808301925050505050505081526020015f81526020015f81526020015f81526020018281526020015f151581526020016001151581525060025f60015481526020019081526020015f205f820151815f01908161041b9190611148565b506020820151816001015560408201518160020155606082015181600301556080820151816004015560a0820151816005015f6101000a81548160ff02191690831515021790555060c08201518160050160016101000a81548160ff021916908315150217905550905050505050565b6001151560025f60015481526020019081526020015f2060050160019054906101000a900460ff161515146104be575f5ffd5b336104c881610870565b15610508576040517f08c379a00000000000000000000000000000000000000000000000000000000081526004016104ff90611271565b60405180910390fd5b5f60025f60015481526020019081526020015f2090505f8160030154826002015483600101546105389190610f48565b6105429190610f48565b9050600333908060018154018082558091505060019003905f5260205f20015f9091909190916101000a81548173ffffffffffffffffffffffffffffffffffffffff021916908373ffffffffffffffffffffffffffffffffffffffff16021790555060018460ff16036105f1576001826001015f8282546105c39190610f48565b925050819055506105d26109cc565b826005015f6101000a81548160ff021916908315150217905550610688565b60028460ff160361063e576001826002015f8282546106109190610f48565b9250508190555061061f6109cc565b826005015f6101000a81548160ff021916908315150217905550610687565b5f8460ff1603610686576001826003015f82825461065c9190610f48565b9250508190555061066b6109cc565b826005015f6101000a81548160ff0219169083151502179055505b5b5b600181836004015461069a919061128f565b1480156106c5575060018460ff1614806106b7575060028460ff16145b806106c457505f8460ff16145b5b15610753575f8260050160016101000a81548160ff02191690831515021790555060405180602001604052805f5f9054906101000a900473ffffffffffffffffffffffffffffffffffffffff1673ffffffffffffffffffffffffffffffffffffffff1673ffffffffffffffffffffffffffffffffffffffff168152506003906001610751929190610a98565b505b50505050565b610761610a5d565b60025f8381526020019081526020015f206040518060e00160405290815f8201805461078c90610eeb565b80601f01602080910402602001604051908101604052809291908181526020018280546107b890610eeb565b80156108035780601f106107da57610100808354040283529160200191610803565b820191905f5260205f20905b8154815290600101906020018083116107e657829003601f168201915b5050505050815260200160018201548152602001600282015481526020016003820154815260200160048201548152602001600582015f9054906101000a900460ff161515151581526020016005820160019054906101000a900460ff1615151515815250509050919050565b5f5f5f90505b600380549050811015610908578273ffffffffffffffffffffffffffffffffffffffff16600382815481106108ae576108ad6112c2565b5b905f5260205f20015f9054906101000a900473ffffffffffffffffffffffffffffffffffffffff1673ffffffffffffffffffffffffffffffffffffffff16036108fb57600191505061090d565b8080600101915050610876565b505f90505b919050565b5f5f9054906101000a900473ffffffffffffffffffffffffffffffffffffffff1673ffffffffffffffffffffffffffffffffffffffff163373ffffffffffffffffffffffffffffffffffffffff1614610969575f5ffd5b6001151560025f60015481526020019081526020015f2060050160019054906101000a900460ff1615151461099c575f5ffd5b5f60025f60015481526020019081526020015f2060050160016101000a81548160ff021916908315150217905550565b5f5f60025f60015481526020019081526020015f2090505f816001015490505f826002015490505f83600301549050600160028560030154610a0e919061131c565b03610a2357600181610a209190610f48565b90505b600281610a30919061134c565b90508082610a3e9190610f48565b831115610a52576001945050505050610a5a565b5f9450505050505b90565b6040518060e00160405280606081526020015f81526020015f81526020015f81526020015f81526020015f151581526020015f151581525090565b828054828255905f5260205f20908101928215610b0e579160200282015b82811115610b0d578251825f6101000a81548173ffffffffffffffffffffffffffffffffffffffff021916908373ffffffffffffffffffffffffffffffffffffffff16021790555091602001919060010190610ab6565b5b509050610b1b9190610b1f565b5090565b5b80821115610b36575f815f905550600101610b20565b5090565b5f5ffd5b5f5ffd5b5f73ffffffffffffffffffffffffffffffffffffffff82169050919050565b5f610b6b82610b42565b9050919050565b610b7b81610b61565b8114610b85575f5ffd5b50565b5f81359050610b9681610b72565b92915050565b5f60208284031215610bb157610bb0610b3a565b5b5f610bbe84828501610b88565b91505092915050565b5f81519050919050565b5f82825260208201905092915050565b8281835e5f83830152505050565b5f601f19601f8301169050919050565b5f610c0982610bc7565b610c138185610bd1565b9350610c23818560208601610be1565b610c2c81610bef565b840191505092915050565b5f819050919050565b610c4981610c37565b82525050565b5f8115159050919050565b610c6381610c4f565b82525050565b5f60e083015f8301518482035f860152610c838282610bff565b9150506020830151610c986020860182610c40565b506040830151610cab6040860182610c40565b506060830151610cbe6060860182610c40565b506080830151610cd16080860182610c40565b5060a0830151610ce460a0860182610c5a565b5060c0830151610cf760c0860182610c5a565b508091505092915050565b5f6020820190508181035f830152610d1a8184610c69565b905092915050565b5f5ffd5b5f5ffd5b5f5ffd5b5f5f83601f840112610d4357610d42610d22565b5b8235905067ffffffffffffffff811115610d6057610d5f610d26565b5b602083019150836001820283011115610d7c57610d7b610d2a565b5b9250929050565b610d8c81610c37565b8114610d96575f5ffd5b50565b5f81359050610da781610d83565b92915050565b5f5f5f60408486031215610dc457610dc3610b3a565b5b5f84013567ffffffffffffffff811115610de157610de0610b3e565b5b610ded86828701610d2e565b93509350506020610e0086828701610d99565b9150509250925092565b5f60ff82169050919050565b610e1f81610e0a565b8114610e29575f5ffd5b50565b5f81359050610e3a81610e16565b92915050565b5f60208284031215610e5557610e54610b3a565b5b5f610e6284828501610e2c565b91505092915050565b5f60208284031215610e8057610e7f610b3a565b5b5f610e8d84828501610d99565b91505092915050565b610e9f81610c4f565b82525050565b5f602082019050610eb85f830184610e96565b92915050565b7f4e487b71000000000000000000000000000000000000000000000000000000005f52602260045260245ffd5b5f6002820490506001821680610f0257607f821691505b602082108103610f1557610f14610ebe565b5b50919050565b7f4e487b71000000000000000000000000000000000000000000000000000000005f52601160045260245ffd5b5f610f5282610c37565b9150610f5d83610c37565b9250828201905080821115610f7557610f74610f1b565b5b92915050565b7f4e487b71000000000000000000000000000000000000000000000000000000005f52604160045260245ffd5b5f819050815f5260205f209050919050565b5f6020601f8301049050919050565b5f82821b905092915050565b5f600883026110047fffffffffffffffffffffffffffffffffffffffffffffffffffffffffffffffff82610fc9565b61100e8683610fc9565b95508019841693508086168417925050509392505050565b5f819050919050565b5f61104961104461103f84610c37565b611026565b610c37565b9050919050565b5f819050919050565b6110628361102f565b61107661106e82611050565b848454610fd5565b825550505050565b5f5f905090565b61108d61107e565b611098818484611059565b505050565b5b818110156110bb576110b05f82611085565b60018101905061109e565b5050565b601f821115611100576110d181610fa8565b6110da84610fba565b810160208510156110e9578190505b6110fd6110f585610fba565b83018261109d565b50505b505050565b5f82821c905092915050565b5f6111205f1984600802611105565b1980831691505092915050565b5f6111388383611111565b9150826002028217905092915050565b61115182610bc7565b67ffffffffffffffff81111561116a57611169610f7b565b5b6111748254610eeb565b61117f8282856110bf565b5f60209050601f8311600181146111b0575f841561119e578287015190505b6111a8858261112d565b86555061120f565b601f1984166111be86610fa8565b5f5b828110156111e5578489015182556001820191506020850194506020810190506111c0565b8683101561120257848901516111fe601f891682611111565b8355505b6001600288020188555050505b505050505050565b5f82825260208201905092915050565b7f4164647265737320686173206e6f7420766f74656420796574000000000000005f82015250565b5f61125b601983611217565b915061126682611227565b602082019050919050565b5f6020820190508181035f8301526112888161124f565b9050919050565b5f61129982610c37565b91506112a483610c37565b92508282039050818111156112bc576112bb610f1b565b5b92915050565b7f4e487b71000000000000000000000000000000000000000000000000000000005f52603260045260245ffd5b7f4e487b71000000000000000000000000000000000000000000000000000000005f52601260045260245ffd5b5f61132682610c37565b915061133183610c37565b925082611341576113406112ef565b5b828206905092915050565b5f61135682610c37565b915061136183610c37565b925082611371576113706112ef565b5b82820490509291505056fea2646970667358221220f387e77361893a32f1740e95d344e4ee9c4a77edb4ec38fd0aef9be8cef26ef164736f6c634300081e0033",
			"opcodes": "PUSH1 0x80 PUSH1 0x40 MSTORE CALLVALUE DUP1 ISZERO PUSH1 0xE JUMPI PUSH0 PUSH0 REVERT JUMPDEST POP CALLER PUSH0 PUSH0 PUSH2 0x100 EXP DUP2 SLOAD DUP2 PUSH20 0xFFFFFFFFFFFFFFFFFFFFFFFFFFFFFFFFFFFFFFFF MUL NOT AND SWAP1 DUP4 PUSH20 0xFFFFFFFFFFFFFFFFFFFFFFFFFFFFFFFFFFFFFFFF AND MUL OR SWAP1 SSTORE POP PUSH1 0x3 CALLER SWAP1 DUP1 PUSH1 0x1 DUP2 SLOAD ADD DUP1 DUP3 SSTORE DUP1 SWAP2 POP POP PUSH1 0x1 SWAP1 SUB SWAP1 PUSH0 MSTORE PUSH1 0x20 PUSH0 KECCAK256 ADD PUSH0 SWAP1 SWAP2 SWAP1 SWAP2 SWAP1 SWAP2 PUSH2 0x100 EXP DUP2 SLOAD DUP2 PUSH20 0xFFFFFFFFFFFFFFFFFFFFFFFFFFFFFFFFFFFFFFFF MUL NOT AND SWAP1 DUP4 PUSH20 0xFFFFFFFFFFFFFFFFFFFFFFFFFFFFFFFFFFFFFFFF AND MUL OR SWAP1 SSTORE POP PUSH2 0x13B2 DUP1 PUSH2 0xBB PUSH0 CODECOPY PUSH0 RETURN INVALID PUSH1 0x80 PUSH1 0x40 MSTORE CALLVALUE DUP1 ISZERO PUSH2 0xF JUMPI PUSH0 PUSH0 REVERT JUMPDEST POP PUSH1 0x4 CALLDATASIZE LT PUSH2 0x7B JUMPI PUSH0 CALLDATALOAD PUSH1 0xE0 SHR DUP1 PUSH4 0xB3F98ADC GT PUSH2 0x59 JUMPI DUP1 PUSH4 0xB3F98ADC EQ PUSH2 0xD5 JUMPI DUP1 PUSH4 0xC7F758A8 EQ PUSH2 0xF1 JUMPI DUP1 PUSH4 0xCBFF75CB EQ PUSH2 0x121 JUMPI DUP1 PUSH4 0xDBDDC7AA EQ PUSH2 0x151 JUMPI PUSH2 0x7B JUMP JUMPDEST DUP1 PUSH4 0x13AF4035 EQ PUSH2 0x7F JUMPI DUP1 PUSH4 0x41EC6870 EQ PUSH2 0x9B JUMPI DUP1 PUSH4 0x46F81A87 EQ PUSH2 0xB9 JUMPI JUMPDEST PUSH0 PUSH0 REVERT JUMPDEST PUSH2 0x99 PUSH1 0x4 DUP1 CALLDATASIZE SUB DUP2 ADD SWAP1 PUSH2 0x94 SWAP2 SWAP1 PUSH2 0xB9C JUMP JUMPDEST PUSH2 0x15B JUMP JUMPDEST STOP JUMPDEST PUSH2 0xA3 PUSH2 0x1F4 JUMP JUMPDEST PUSH1 0x40 MLOAD PUSH2 0xB0 SWAP2 SWAP1 PUSH2 0xD02 JUMP JUMPDEST PUSH1 0x40 MLOAD DUP1 SWAP2 SUB SWAP1 RETURN JUMPDEST PUSH2 0xD3 PUSH1 0x4 DUP1 CALLDATASIZE SUB DUP2 ADD SWAP1 PUSH2 0xCE SWAP2 SWAP1 PUSH2 0xDAD JUMP JUMPDEST PUSH2 0x30B JUMP JUMPDEST STOP JUMPDEST PUSH2 0xEF PUSH1 0x4 DUP1 CALLDATASIZE SUB DUP2 ADD SWAP1 PUSH2 0xEA SWAP2 SWAP1 PUSH2 0xE40 JUMP JUMPDEST PUSH2 0x48B JUMP JUMPDEST STOP JUMPDEST PUSH2 0x10B PUSH1 0x4 DUP1 CALLDATASIZE SUB DUP2 ADD SWAP1 PUSH2 0x106 SWAP2 SWAP1 PUSH2 0xE6B JUMP JUMPDEST PUSH2 0x759 JUMP JUMPDEST PUSH1 0x40 MLOAD PUSH2 0x118 SWAP2 SWAP1 PUSH2 0xD02 JUMP JUMPDEST PUSH1 0x40 MLOAD DUP1 SWAP2 SUB SWAP1 RETURN JUMPDEST PUSH2 0x13B PUSH1 0x4 DUP1 CALLDATASIZE SUB DUP2 ADD SWAP1 PUSH2 0x136 SWAP2 SWAP1 PUSH2 0xB9C JUMP JUMPDEST PUSH2 0x870 JUMP JUMPDEST PUSH1 0x40 MLOAD PUSH2 0x148 SWAP2 SWAP1 PUSH2 0xEA5 JUMP JUMPDEST PUSH1 0x40 MLOAD DUP1 SWAP2 SUB SWAP1 RETURN JUMPDEST PUSH2 0x159 PUSH2 0x912 JUMP JUMPDEST STOP JUMPDEST PUSH0 PUSH0 SWAP1 SLOAD SWAP1 PUSH2 0x100 EXP SWAP1 DIV PUSH20 0xFFFFFFFFFFFFFFFFFFFFFFFFFFFFFFFFFFFFFFFF AND PUSH20 0xFFFFFFFFFFFFFFFFFFFFFFFFFFFFFFFFFFFFFFFF AND CALLER PUSH20 0xFFFFFFFFFFFFFFFFFFFFFFFFFFFFFFFFFFFFFFFF AND EQ PUSH2 0x1B2 JUMPI PUSH0 PUSH0 REVERT JUMPDEST DUP1 PUSH0 PUSH0 PUSH2 0x100 EXP DUP2 SLOAD DUP2 PUSH20 0xFFFFFFFFFFFFFFFFFFFFFFFFFFFFFFFFFFFFFFFF MUL NOT AND SWAP1 DUP4 PUSH20 0xFFFFFFFFFFFFFFFFFFFFFFFFFFFFFFFFFFFFFFFF AND MUL OR SWAP1 SSTORE POP POP JUMP JUMPDEST PUSH2 0x1FC PUSH2 0xA5D JUMP JUMPDEST PUSH1 0x2 PUSH0 PUSH1 0x1 SLOAD DUP2 MSTORE PUSH1 0x20 ADD SWAP1 DUP2 MSTORE PUSH1 0x20 ADD PUSH0 KECCAK256 PUSH1 0x40 MLOAD DUP1 PUSH1 0xE0 ADD PUSH1 0x40 MSTORE SWAP1 DUP2 PUSH0 DUP3 ADD DUP1 SLOAD PUSH2 0x229 SWAP1 PUSH2 0xEEB JUMP JUMPDEST DUP1 PUSH1 0x1F ADD PUSH1 0x20 DUP1 SWAP2 DIV MUL PUSH1 0x20 ADD PUSH1 0x40 MLOAD SWAP1 DUP2 ADD PUSH1 0x40 MSTORE DUP1 SWAP3 SWAP2 SWAP1 DUP2 DUP2 MSTORE PUSH1 0x20 ADD DUP3 DUP1 SLOAD PUSH2 0x255 SWAP1 PUSH2 0xEEB JUMP JUMPDEST DUP1 ISZERO PUSH2 0x2A0 JUMPI DUP1 PUSH1 0x1F LT PUSH2 0x277 JUMPI PUSH2 0x100 DUP1 DUP4 SLOAD DIV MUL DUP4 MSTORE SWAP2 PUSH1 0x20 ADD SWAP2 PUSH2 0x2A0 JUMP JUMPDEST DUP3 ADD SWAP2 SWAP1 PUSH0 MSTORE PUSH1 0x20 PUSH0 KECCAK256 SWAP1 JUMPDEST DUP2 SLOAD DUP2 MSTORE SWAP1 PUSH1 0x1 ADD SWAP1 PUSH1 0x20 ADD DUP1 DUP4 GT PUSH2 0x283 JUMPI DUP3 SWAP1 SUB PUSH1 0x1F AND DUP3 ADD SWAP2 JUMPDEST POP POP POP POP POP DUP2 MSTORE PUSH1 0x20 ADD PUSH1 0x1 DUP3 ADD SLOAD DUP2 MSTORE PUSH1 0x20 ADD PUSH1 0x2 DUP3 ADD SLOAD DUP2 MSTORE PUSH1 0x20 ADD PUSH1 0x3 DUP3 ADD SLOAD DUP2 MSTORE PUSH1 0x20 ADD PUSH1 0x4 DUP3 ADD SLOAD DUP2 MSTORE PUSH1 0x20 ADD PUSH1 0x5 DUP3 ADD PUSH0 SWAP1 SLOAD SWAP1 PUSH2 0x100 EXP SWAP1 DIV PUSH1 0xFF AND ISZERO ISZERO ISZERO ISZERO DUP2 MSTORE PUSH1 0x20 ADD PUSH1 0x5 DUP3 ADD PUSH1 0x1 SWAP1 SLOAD SWAP1 PUSH2 0x100 EXP SWAP1 DIV PUSH1 0xFF AND ISZERO ISZERO ISZERO ISZERO DUP2 MSTORE POP POP SWAP1 POP SWAP1 JUMP JUMPDEST PUSH0 PUSH0 SWAP1 SLOAD SWAP1 PUSH2 0x100 EXP SWAP1 DIV PUSH20 0xFFFFFFFFFFFFFFFFFFFFFFFFFFFFFFFFFFFFFFFF AND PUSH20 0xFFFFFFFFFFFFFFFFFFFFFFFFFFFFFFFFFFFFFFFF AND CALLER PUSH20 0xFFFFFFFFFFFFFFFFFFFFFFFFFFFFFFFFFFFFFFFF AND EQ PUSH2 0x362 JUMPI PUSH0 PUSH0 REVERT JUMPDEST PUSH1 0x1 DUP1 PUSH0 DUP3 DUP3 SLOAD PUSH2 0x373 SWAP2 SWAP1 PUSH2 0xF48 JUMP JUMPDEST SWAP3 POP POP DUP2 SWAP1 SSTORE POP PUSH1 0x40 MLOAD DUP1 PUSH1 0xE0 ADD PUSH1 0x40 MSTORE DUP1 DUP5 DUP5 DUP1 DUP1 PUSH1 0x1F ADD PUSH1 0x20 DUP1 SWAP2 DIV MUL PUSH1 0x20 ADD PUSH1 0x40 MLOAD SWAP1 DUP2 ADD PUSH1 0x40 MSTORE DUP1 SWAP4 SWAP3 SWAP2 SWAP1 DUP2 DUP2 MSTORE PUSH1 0x20 ADD DUP4 DUP4 DUP1 DUP3 DUP5 CALLDATACOPY PUSH0 DUP2 DUP5 ADD MSTORE PUSH1 0x1F NOT PUSH1 0x1F DUP3 ADD AND SWAP1 POP DUP1 DUP4 ADD SWAP3 POP POP POP POP POP POP POP DUP2 MSTORE PUSH1 0x20 ADD PUSH0 DUP2 MSTORE PUSH1 0x20 ADD PUSH0 DUP2 MSTORE PUSH1 0x20 ADD PUSH0 DUP2 MSTORE PUSH1 0x20 ADD DUP3 DUP2 MSTORE PUSH1 0x20 ADD PUSH0 ISZERO ISZERO DUP2 MSTORE PUSH1 0x20 ADD PUSH1 0x1 ISZERO ISZERO DUP2 MSTORE POP PUSH1 0x2 PUSH0 PUSH1 0x1 SLOAD DUP2 MSTORE PUSH1 0x20 ADD SWAP1 DUP2 MSTORE PUSH1 0x20 ADD PUSH0 KECCAK256 PUSH0 DUP3 ADD MLOAD DUP2 PUSH0 ADD SWAP1 DUP2 PUSH2 0x41B SWAP2 SWAP1 PUSH2 0x1148 JUMP JUMPDEST POP PUSH1 0x20 DUP3 ADD MLOAD DUP2 PUSH1 0x1 ADD SSTORE PUSH1 0x40 DUP3 ADD MLOAD DUP2 PUSH1 0x2 ADD SSTORE PUSH1 0x60 DUP3 ADD MLOAD DUP2 PUSH1 0x3 ADD SSTORE PUSH1 0x80 DUP3 ADD MLOAD DUP2 PUSH1 0x4 ADD SSTORE PUSH1 0xA0 DUP3 ADD MLOAD DUP2 PUSH1 0x5 ADD PUSH0 PUSH2 0x100 EXP DUP2 SLOAD DUP2 PUSH1 0xFF MUL NOT AND SWAP1 DUP4 ISZERO ISZERO MUL OR SWAP1 SSTORE POP PUSH1 0xC0 DUP3 ADD MLOAD DUP2 PUSH1 0x5 ADD PUSH1 0x1 PUSH2 0x100 EXP DUP2 SLOAD DUP2 PUSH1 0xFF MUL NOT AND SWAP1 DUP4 ISZERO ISZERO MUL OR SWAP1 SSTORE POP SWAP1 POP POP POP POP POP JUMP JUMPDEST PUSH1 0x1 ISZERO ISZERO PUSH1 0x2 PUSH0 PUSH1 0x1 SLOAD DUP2 MSTORE PUSH1 0x20 ADD SWAP1 DUP2 MSTORE PUSH1 0x20 ADD PUSH0 KECCAK256 PUSH1 0x5 ADD PUSH1 0x1 SWAP1 SLOAD SWAP1 PUSH2 0x100 EXP SWAP1 DIV PUSH1 0xFF AND ISZERO ISZERO EQ PUSH2 0x4BE JUMPI PUSH0 PUSH0 REVERT JUMPDEST CALLER PUSH2 0x4C8 DUP2 PUSH2 0x870 JUMP JUMPDEST ISZERO PUSH2 0x508 JUMPI PUSH1 0x40 MLOAD PUSH32 0x8C379A000000000000000000000000000000000000000000000000000000000 DUP2 MSTORE PUSH1 0x4 ADD PUSH2 0x4FF SWAP1 PUSH2 0x1271 JUMP JUMPDEST PUSH1 0x40 MLOAD DUP1 SWAP2 SUB SWAP1 REVERT JUMPDEST PUSH0 PUSH1 0x2 PUSH0 PUSH1 0x1 SLOAD DUP2 MSTORE PUSH1 0x20 ADD SWAP1 DUP2 MSTORE PUSH1 0x20 ADD PUSH0 KECCAK256 SWAP1 POP PUSH0 DUP2 PUSH1 0x3 ADD SLOAD DUP3 PUSH1 0x2 ADD SLOAD DUP4 PUSH1 0x1 ADD SLOAD PUSH2 0x538 SWAP2 SWAP1 PUSH2 0xF48 JUMP JUMPDEST PUSH2 0x542 SWAP2 SWAP1 PUSH2 0xF48 JUMP JUMPDEST SWAP1 POP PUSH1 0x3 CALLER SWAP1 DUP1 PUSH1 0x1 DUP2 SLOAD ADD DUP1 DUP3 SSTORE DUP1 SWAP2 POP POP PUSH1 0x1 SWAP1 SUB SWAP1 PUSH0 MSTORE PUSH1 0x20 PUSH0 KECCAK256 ADD PUSH0 SWAP1 SWAP2 SWAP1 SWAP2 SWAP1 SWAP2 PUSH2 0x100 EXP DUP2 SLOAD DUP2 PUSH20 0xFFFFFFFFFFFFFFFFFFFFFFFFFFFFFFFFFFFFFFFF MUL NOT AND SWAP1 DUP4 PUSH20 0xFFFFFFFFFFFFFFFFFFFFFFFFFFFFFFFFFFFFFFFF AND MUL OR SWAP1 SSTORE POP PUSH1 0x1 DUP5 PUSH1 0xFF AND SUB PUSH2 0x5F1 JUMPI PUSH1 0x1 DUP3 PUSH1 0x1 ADD PUSH0 DUP3 DUP3 SLOAD PUSH2 0x5C3 SWAP2 SWAP1 PUSH2 0xF48 JUMP JUMPDEST SWAP3 POP POP DUP2 SWAP1 SSTORE POP PUSH2 0x5D2 PUSH2 0x9CC JUMP JUMPDEST DUP3 PUSH1 0x5 ADD PUSH0 PUSH2 0x100 EXP DUP2 SLOAD DUP2 PUSH1 0xFF MUL NOT AND SWAP1 DUP4 ISZERO ISZERO MUL OR SWAP1 SSTORE POP PUSH2 0x688 JUMP JUMPDEST PUSH1 0x2 DUP5 PUSH1 0xFF AND SUB PUSH2 0x63E JUMPI PUSH1 0x1 DUP3 PUSH1 0x2 ADD PUSH0 DUP3 DUP3 SLOAD PUSH2 0x610 SWAP2 SWAP1 PUSH2 0xF48 JUMP JUMPDEST SWAP3 POP POP DUP2 SWAP1 SSTORE POP PUSH2 0x61F PUSH2 0x9CC JUMP JUMPDEST DUP3 PUSH1 0x5 ADD PUSH0 PUSH2 0x100 EXP DUP2 SLOAD DUP2 PUSH1 0xFF MUL NOT AND SWAP1 DUP4 ISZERO ISZERO MUL OR SWAP1 SSTORE POP PUSH2 0x687 JUMP JUMPDEST PUSH0 DUP5 PUSH1 0xFF AND SUB PUSH2 0x686 JUMPI PUSH1 0x1 DUP3 PUSH1 0x3 ADD PUSH0 DUP3 DUP3 SLOAD PUSH2 0x65C SWAP2 SWAP1 PUSH2 0xF48 JUMP JUMPDEST SWAP3 POP POP DUP2 SWAP1 SSTORE POP PUSH2 0x66B PUSH2 0x9CC JUMP JUMPDEST DUP3 PUSH1 0x5 ADD PUSH0 PUSH2 0x100 EXP DUP2 SLOAD DUP2 PUSH1 0xFF MUL NOT AND SWAP1 DUP4 ISZERO ISZERO MUL OR SWAP1 SSTORE POP JUMPDEST JUMPDEST JUMPDEST PUSH1 0x1 DUP2 DUP4 PUSH1 0x4 ADD SLOAD PUSH2 0x69A SWAP2 SWAP1 PUSH2 0x128F JUMP JUMPDEST EQ DUP1 ISZERO PUSH2 0x6C5 JUMPI POP PUSH1 0x1 DUP5 PUSH1 0xFF AND EQ DUP1 PUSH2 0x6B7 JUMPI POP PUSH1 0x2 DUP5 PUSH1 0xFF AND EQ JUMPDEST DUP1 PUSH2 0x6C4 JUMPI POP PUSH0 DUP5 PUSH1 0xFF AND EQ JUMPDEST JUMPDEST ISZERO PUSH2 0x753 JUMPI PUSH0 DUP3 PUSH1 0x5 ADD PUSH1 0x1 PUSH2 0x100 EXP DUP2 SLOAD DUP2 PUSH1 0xFF MUL NOT AND SWAP1 DUP4 ISZERO ISZERO MUL OR SWAP1 SSTORE POP PUSH1 0x40 MLOAD DUP1 PUSH1 0x20 ADD PUSH1 0x40 MSTORE DUP1 PUSH0 PUSH0 SWAP1 SLOAD SWAP1 PUSH2 0x100 EXP SWAP1 DIV PUSH20 0xFFFFFFFFFFFFFFFFFFFFFFFFFFFFFFFFFFFFFFFF AND PUSH20 0xFFFFFFFFFFFFFFFFFFFFFFFFFFFFFFFFFFFFFFFF AND PUSH20 0xFFFFFFFFFFFFFFFFFFFFFFFFFFFFFFFFFFFFFFFF AND DUP2 MSTORE POP PUSH1 0x3 SWAP1 PUSH1 0x1 PUSH2 0x751 SWAP3 SWAP2 SWAP1 PUSH2 0xA98 JUMP JUMPDEST POP JUMPDEST POP POP POP POP JUMP JUMPDEST PUSH2 0x761 PUSH2 0xA5D JUMP JUMPDEST PUSH1 0x2 PUSH0 DUP4 DUP2 MSTORE PUSH1 0x20 ADD SWAP1 DUP2 MSTORE PUSH1 0x20 ADD PUSH0 KECCAK256 PUSH1 0x40 MLOAD DUP1 PUSH1 0xE0 ADD PUSH1 0x40 MSTORE SWAP1 DUP2 PUSH0 DUP3 ADD DUP1 SLOAD PUSH2 0x78C SWAP1 PUSH2 0xEEB JUMP JUMPDEST DUP1 PUSH1 0x1F ADD PUSH1 0x20 DUP1 SWAP2 DIV MUL PUSH1 0x20 ADD PUSH1 0x40 MLOAD SWAP1 DUP2 ADD PUSH1 0x40 MSTORE DUP1 SWAP3 SWAP2 SWAP1 DUP2 DUP2 MSTORE PUSH1 0x20 ADD DUP3 DUP1 SLOAD PUSH2 0x7B8 SWAP1 PUSH2 0xEEB JUMP JUMPDEST DUP1 ISZERO PUSH2 0x803 JUMPI DUP1 PUSH1 0x1F LT PUSH2 0x7DA JUMPI PUSH2 0x100 DUP1 DUP4 SLOAD DIV MUL DUP4 MSTORE SWAP2 PUSH1 0x20 ADD SWAP2 PUSH2 0x803 JUMP JUMPDEST DUP3 ADD SWAP2 SWAP1 PUSH0 MSTORE PUSH1 0x20 PUSH0 KECCAK256 SWAP1 JUMPDEST DUP2 SLOAD DUP2 MSTORE SWAP1 PUSH1 0x1 ADD SWAP1 PUSH1 0x20 ADD DUP1 DUP4 GT PUSH2 0x7E6 JUMPI DUP3 SWAP1 SUB PUSH1 0x1F AND DUP3 ADD SWAP2 JUMPDEST POP POP POP POP POP DUP2 MSTORE PUSH1 0x20 ADD PUSH1 0x1 DUP3 ADD SLOAD DUP2 MSTORE PUSH1 0x20 ADD PUSH1 0x2 DUP3 ADD SLOAD DUP2 MSTORE PUSH1 0x20 ADD PUSH1 0x3 DUP3 ADD SLOAD DUP2 MSTORE PUSH1 0x20 ADD PUSH1 0x4 DUP3 ADD SLOAD DUP2 MSTORE PUSH1 0x20 ADD PUSH1 0x5 DUP3 ADD PUSH0 SWAP1 SLOAD SWAP1 PUSH2 0x100 EXP SWAP1 DIV PUSH1 0xFF AND ISZERO ISZERO ISZERO ISZERO DUP2 MSTORE PUSH1 0x20 ADD PUSH1 0x5 DUP3 ADD PUSH1 0x1 SWAP1 SLOAD SWAP1 PUSH2 0x100 EXP SWAP1 DIV PUSH1 0xFF AND ISZERO ISZERO ISZERO ISZERO DUP2 MSTORE POP POP SWAP1 POP SWAP2 SWAP1 POP JUMP JUMPDEST PUSH0 PUSH0 PUSH0 SWAP1 POP JUMPDEST PUSH1 0x3 DUP1 SLOAD SWAP1 POP DUP2 LT ISZERO PUSH2 0x908 JUMPI DUP3 PUSH20 0xFFFFFFFFFFFFFFFFFFFFFFFFFFFFFFFFFFFFFFFF AND PUSH1 0x3 DUP3 DUP2 SLOAD DUP2 LT PUSH2 0x8AE JUMPI PUSH2 0x8AD PUSH2 0x12C2 JUMP JUMPDEST JUMPDEST SWAP1 PUSH0 MSTORE PUSH1 0x20 PUSH0 KECCAK256 ADD PUSH0 SWAP1 SLOAD SWAP1 PUSH2 0x100 EXP SWAP1 DIV PUSH20 0xFFFFFFFFFFFFFFFFFFFFFFFFFFFFFFFFFFFFFFFF AND PUSH20 0xFFFFFFFFFFFFFFFFFFFFFFFFFFFFFFFFFFFFFFFF AND SUB PUSH2 0x8FB JUMPI PUSH1 0x1 SWAP2 POP POP PUSH2 0x90D JUMP JUMPDEST DUP1 DUP1 PUSH1 0x1 ADD SWAP2 POP POP PUSH2 0x876 JUMP JUMPDEST POP PUSH0 SWAP1 POP JUMPDEST SWAP2 SWAP1 POP JUMP JUMPDEST PUSH0 PUSH0 SWAP1 SLOAD SWAP1 PUSH2 0x100 EXP SWAP1 DIV PUSH20 0xFFFFFFFFFFFFFFFFFFFFFFFFFFFFFFFFFFFFFFFF AND PUSH20 0xFFFFFFFFFFFFFFFFFFFFFFFFFFFFFFFFFFFFFFFF AND CALLER PUSH20 0xFFFFFFFFFFFFFFFFFFFFFFFFFFFFFFFFFFFFFFFF AND EQ PUSH2 0x969 JUMPI PUSH0 PUSH0 REVERT JUMPDEST PUSH1 0x1 ISZERO ISZERO PUSH1 0x2 PUSH0 PUSH1 0x1 SLOAD DUP2 MSTORE PUSH1 0x20 ADD SWAP1 DUP2 MSTORE PUSH1 0x20 ADD PUSH0 KECCAK256 PUSH1 0x5 ADD PUSH1 0x1 SWAP1 SLOAD SWAP1 PUSH2 0x100 EXP SWAP1 DIV PUSH1 0xFF AND ISZERO ISZERO EQ PUSH2 0x99C JUMPI PUSH0 PUSH0 REVERT JUMPDEST PUSH0 PUSH1 0x2 PUSH0 PUSH1 0x1 SLOAD DUP2 MSTORE PUSH1 0x20 ADD SWAP1 DUP2 MSTORE PUSH1 0x20 ADD PUSH0 KECCAK256 PUSH1 0x5 ADD PUSH1 0x1 PUSH2 0x100 EXP DUP2 SLOAD DUP2 PUSH1 0xFF MUL NOT AND SWAP1 DUP4 ISZERO ISZERO MUL OR SWAP1 SSTORE POP JUMP JUMPDEST PUSH0 PUSH0 PUSH1 0x2 PUSH0 PUSH1 0x1 SLOAD DUP2 MSTORE PUSH1 0x20 ADD SWAP1 DUP2 MSTORE PUSH1 0x20 ADD PUSH0 KECCAK256 SWAP1 POP PUSH0 DUP2 PUSH1 0x1 ADD SLOAD SWAP1 POP PUSH0 DUP3 PUSH1 0x2 ADD SLOAD SWAP1 POP PUSH0 DUP4 PUSH1 0x3 ADD SLOAD SWAP1 POP PUSH1 0x1 PUSH1 0x2 DUP6 PUSH1 0x3 ADD SLOAD PUSH2 0xA0E SWAP2 SWAP1 PUSH2 0x131C JUMP JUMPDEST SUB PUSH2 0xA23 JUMPI PUSH1 0x1 DUP2 PUSH2 0xA20 SWAP2 SWAP1 PUSH2 0xF48 JUMP JUMPDEST SWAP1 POP JUMPDEST PUSH1 0x2 DUP2 PUSH2 0xA30 SWAP2 SWAP1 PUSH2 0x134C JUMP JUMPDEST SWAP1 POP DUP1 DUP3 PUSH2 0xA3E SWAP2 SWAP1 PUSH2 0xF48 JUMP JUMPDEST DUP4 GT ISZERO PUSH2 0xA52 JUMPI PUSH1 0x1 SWAP5 POP POP POP POP POP PUSH2 0xA5A JUMP JUMPDEST PUSH0 SWAP5 POP POP POP POP POP JUMPDEST SWAP1 JUMP JUMPDEST PUSH1 0x40 MLOAD DUP1 PUSH1 0xE0 ADD PUSH1 0x40 MSTORE DUP1 PUSH1 0x60 DUP2 MSTORE PUSH1 0x20 ADD PUSH0 DUP2 MSTORE PUSH1 0x20 ADD PUSH0 DUP2 MSTORE PUSH1 0x20 ADD PUSH0 DUP2 MSTORE PUSH1 0x20 ADD PUSH0 DUP2 MSTORE PUSH1 0x20 ADD PUSH0 ISZERO ISZERO DUP2 MSTORE PUSH1 0x20 ADD PUSH0 ISZERO ISZERO DUP2 MSTORE POP SWAP1 JUMP JUMPDEST DUP3 DUP1 SLOAD DUP3 DUP3 SSTORE SWAP1 PUSH0 MSTORE PUSH1 0x20 PUSH0 KECCAK256 SWAP1 DUP2 ADD SWAP3 DUP3 ISZERO PUSH2 0xB0E JUMPI SWAP2 PUSH1 0x20 MUL DUP3 ADD JUMPDEST DUP3 DUP2 GT ISZERO PUSH2 0xB0D JUMPI DUP3 MLOAD DUP3 PUSH0 PUSH2 0x100 EXP DUP2 SLOAD DUP2 PUSH20 0xFFFFFFFFFFFFFFFFFFFFFFFFFFFFFFFFFFFFFFFF MUL NOT AND SWAP1 DUP4 PUSH20 0xFFFFFFFFFFFFFFFFFFFFFFFFFFFFFFFFFFFFFFFF AND MUL OR SWAP1 SSTORE POP SWAP2 PUSH1 0x20 ADD SWAP2 SWAP1 PUSH1 0x1 ADD SWAP1 PUSH2 0xAB6 JUMP JUMPDEST JUMPDEST POP SWAP1 POP PUSH2 0xB1B SWAP2 SWAP1 PUSH2 0xB1F JUMP JUMPDEST POP SWAP1 JUMP JUMPDEST JUMPDEST DUP1 DUP3 GT ISZERO PUSH2 0xB36 JUMPI PUSH0 DUP2 PUSH0 SWAP1 SSTORE POP PUSH1 0x1 ADD PUSH2 0xB20 JUMP JUMPDEST POP SWAP1 JUMP JUMPDEST PUSH0 PUSH0 REVERT JUMPDEST PUSH0 PUSH0 REVERT JUMPDEST PUSH0 PUSH20 0xFFFFFFFFFFFFFFFFFFFFFFFFFFFFFFFFFFFFFFFF DUP3 AND SWAP1 POP SWAP2 SWAP1 POP JUMP JUMPDEST PUSH0 PUSH2 0xB6B DUP3 PUSH2 0xB42 JUMP JUMPDEST SWAP1 POP SWAP2 SWAP1 POP JUMP JUMPDEST PUSH2 0xB7B DUP2 PUSH2 0xB61 JUMP JUMPDEST DUP2 EQ PUSH2 0xB85 JUMPI PUSH0 PUSH0 REVERT JUMPDEST POP JUMP JUMPDEST PUSH0 DUP2 CALLDATALOAD SWAP1 POP PUSH2 0xB96 DUP2 PUSH2 0xB72 JUMP JUMPDEST SWAP3 SWAP2 POP POP JUMP JUMPDEST PUSH0 PUSH1 0x20 DUP3 DUP5 SUB SLT ISZERO PUSH2 0xBB1 JUMPI PUSH2 0xBB0 PUSH2 0xB3A JUMP JUMPDEST JUMPDEST PUSH0 PUSH2 0xBBE DUP5 DUP3 DUP6 ADD PUSH2 0xB88 JUMP JUMPDEST SWAP2 POP POP SWAP3 SWAP2 POP POP JUMP JUMPDEST PUSH0 DUP2 MLOAD SWAP1 POP SWAP2 SWAP1 POP JUMP JUMPDEST PUSH0 DUP3 DUP3 MSTORE PUSH1 0x20 DUP3 ADD SWAP1 POP SWAP3 SWAP2 POP POP JUMP JUMPDEST DUP3 DUP2 DUP4 MCOPY PUSH0 DUP4 DUP4 ADD MSTORE POP POP POP JUMP JUMPDEST PUSH0 PUSH1 0x1F NOT PUSH1 0x1F DUP4 ADD AND SWAP1 POP SWAP2 SWAP1 POP JUMP JUMPDEST PUSH0 PUSH2 0xC09 DUP3 PUSH2 0xBC7 JUMP JUMPDEST PUSH2 0xC13 DUP2 DUP6 PUSH2 0xBD1 JUMP JUMPDEST SWAP4 POP PUSH2 0xC23 DUP2 DUP6 PUSH1 0x20 DUP7 ADD PUSH2 0xBE1 JUMP JUMPDEST PUSH2 0xC2C DUP2 PUSH2 0xBEF JUMP JUMPDEST DUP5 ADD SWAP2 POP POP SWAP3 SWAP2 POP POP JUMP JUMPDEST PUSH0 DUP2 SWAP1 POP SWAP2 SWAP1 POP JUMP JUMPDEST PUSH2 0xC49 DUP2 PUSH2 0xC37 JUMP JUMPDEST DUP3 MSTORE POP POP JUMP JUMPDEST PUSH0 DUP2 ISZERO ISZERO SWAP1 POP SWAP2 SWAP1 POP JUMP JUMPDEST PUSH2 0xC63 DUP2 PUSH2 0xC4F JUMP JUMPDEST DUP3 MSTORE POP POP JUMP JUMPDEST PUSH0 PUSH1 0xE0 DUP4 ADD PUSH0 DUP4 ADD MLOAD DUP5 DUP3 SUB PUSH0 DUP7 ADD MSTORE PUSH2 0xC83 DUP3 DUP3 PUSH2 0xBFF JUMP JUMPDEST SWAP2 POP POP PUSH1 0x20 DUP4 ADD MLOAD PUSH2 0xC98 PUSH1 0x20 DUP7 ADD DUP3 PUSH2 0xC40 JUMP JUMPDEST POP PUSH1 0x40 DUP4 ADD MLOAD PUSH2 0xCAB PUSH1 0x40 DUP7 ADD DUP3 PUSH2 0xC40 JUMP JUMPDEST POP PUSH1 0x60 DUP4 ADD MLOAD PUSH2 0xCBE PUSH1 0x60 DUP7 ADD DUP3 PUSH2 0xC40 JUMP JUMPDEST POP PUSH1 0x80 DUP4 ADD MLOAD PUSH2 0xCD1 PUSH1 0x80 DUP7 ADD DUP3 PUSH2 0xC40 JUMP JUMPDEST POP PUSH1 0xA0 DUP4 ADD MLOAD PUSH2 0xCE4 PUSH1 0xA0 DUP7 ADD DUP3 PUSH2 0xC5A JUMP JUMPDEST POP PUSH1 0xC0 DUP4 ADD MLOAD PUSH2 0xCF7 PUSH1 0xC0 DUP7 ADD DUP3 PUSH2 0xC5A JUMP JUMPDEST POP DUP1 SWAP2 POP POP SWAP3 SWAP2 POP POP JUMP JUMPDEST PUSH0 PUSH1 0x20 DUP3 ADD SWAP1 POP DUP2 DUP2 SUB PUSH0 DUP4 ADD MSTORE PUSH2 0xD1A DUP2 DUP5 PUSH2 0xC69 JUMP JUMPDEST SWAP1 POP SWAP3 SWAP2 POP POP JUMP JUMPDEST PUSH0 PUSH0 REVERT JUMPDEST PUSH0 PUSH0 REVERT JUMPDEST PUSH0 PUSH0 REVERT JUMPDEST PUSH0 PUSH0 DUP4 PUSH1 0x1F DUP5 ADD SLT PUSH2 0xD43 JUMPI PUSH2 0xD42 PUSH2 0xD22 JUMP JUMPDEST JUMPDEST DUP3 CALLDATALOAD SWAP1 POP PUSH8 0xFFFFFFFFFFFFFFFF DUP2 GT ISZERO PUSH2 0xD60 JUMPI PUSH2 0xD5F PUSH2 0xD26 JUMP JUMPDEST JUMPDEST PUSH1 0x20 DUP4 ADD SWAP2 POP DUP4 PUSH1 0x1 DUP3 MUL DUP4 ADD GT ISZERO PUSH2 0xD7C JUMPI PUSH2 0xD7B PUSH2 0xD2A JUMP JUMPDEST JUMPDEST SWAP3 POP SWAP3 SWAP1 POP JUMP JUMPDEST PUSH2 0xD8C DUP2 PUSH2 0xC37 JUMP JUMPDEST DUP2 EQ PUSH2 0xD96 JUMPI PUSH0 PUSH0 REVERT JUMPDEST POP JUMP JUMPDEST PUSH0 DUP2 CALLDATALOAD SWAP1 POP PUSH2 0xDA7 DUP2 PUSH2 0xD83 JUMP JUMPDEST SWAP3 SWAP2 POP POP JUMP JUMPDEST PUSH0 PUSH0 PUSH0 PUSH1 0x40 DUP5 DUP7 SUB SLT ISZERO PUSH2 0xDC4 JUMPI PUSH2 0xDC3 PUSH2 0xB3A JUMP JUMPDEST JUMPDEST PUSH0 DUP5 ADD CALLDATALOAD PUSH8 0xFFFFFFFFFFFFFFFF DUP2 GT ISZERO PUSH2 0xDE1 JUMPI PUSH2 0xDE0 PUSH2 0xB3E JUMP JUMPDEST JUMPDEST PUSH2 0xDED DUP7 DUP3 DUP8 ADD PUSH2 0xD2E JUMP JUMPDEST SWAP4 POP SWAP4 POP POP PUSH1 0x20 PUSH2 0xE00 DUP7 DUP3 DUP8 ADD PUSH2 0xD99 JUMP JUMPDEST SWAP2 POP POP SWAP3 POP SWAP3 POP SWAP3 JUMP JUMPDEST PUSH0 PUSH1 0xFF DUP3 AND SWAP1 POP SWAP2 SWAP1 POP JUMP JUMPDEST PUSH2 0xE1F DUP2 PUSH2 0xE0A JUMP JUMPDEST DUP2 EQ PUSH2 0xE29 JUMPI PUSH0 PUSH0 REVERT JUMPDEST POP JUMP JUMPDEST PUSH0 DUP2 CALLDATALOAD SWAP1 POP PUSH2 0xE3A DUP2 PUSH2 0xE16 JUMP JUMPDEST SWAP3 SWAP2 POP POP JUMP JUMPDEST PUSH0 PUSH1 0x20 DUP3 DUP5 SUB SLT ISZERO PUSH2 0xE55 JUMPI PUSH2 0xE54 PUSH2 0xB3A JUMP JUMPDEST JUMPDEST PUSH0 PUSH2 0xE62 DUP5 DUP3 DUP6 ADD PUSH2 0xE2C JUMP JUMPDEST SWAP2 POP POP SWAP3 SWAP2 POP POP JUMP JUMPDEST PUSH0 PUSH1 0x20 DUP3 DUP5 SUB SLT ISZERO PUSH2 0xE80 JUMPI PUSH2 0xE7F PUSH2 0xB3A JUMP JUMPDEST JUMPDEST PUSH0 PUSH2 0xE8D DUP5 DUP3 DUP6 ADD PUSH2 0xD99 JUMP JUMPDEST SWAP2 POP POP SWAP3 SWAP2 POP POP JUMP JUMPDEST PUSH2 0xE9F DUP2 PUSH2 0xC4F JUMP JUMPDEST DUP3 MSTORE POP POP JUMP JUMPDEST PUSH0 PUSH1 0x20 DUP3 ADD SWAP1 POP PUSH2 0xEB8 PUSH0 DUP4 ADD DUP5 PUSH2 0xE96 JUMP JUMPDEST SWAP3 SWAP2 POP POP JUMP JUMPDEST PUSH32 0x4E487B7100000000000000000000000000000000000000000000000000000000 PUSH0 MSTORE PUSH1 0x22 PUSH1 0x4 MSTORE PUSH1 0x24 PUSH0 REVERT JUMPDEST PUSH0 PUSH1 0x2 DUP3 DIV SWAP1 POP PUSH1 0x1 DUP3 AND DUP1 PUSH2 0xF02 JUMPI PUSH1 0x7F DUP3 AND SWAP2 POP JUMPDEST PUSH1 0x20 DUP3 LT DUP2 SUB PUSH2 0xF15 JUMPI PUSH2 0xF14 PUSH2 0xEBE JUMP JUMPDEST JUMPDEST POP SWAP2 SWAP1 POP JUMP JUMPDEST PUSH32 0x4E487B7100000000000000000000000000000000000000000000000000000000 PUSH0 MSTORE PUSH1 0x11 PUSH1 0x4 MSTORE PUSH1 0x24 PUSH0 REVERT JUMPDEST PUSH0 PUSH2 0xF52 DUP3 PUSH2 0xC37 JUMP JUMPDEST SWAP2 POP PUSH2 0xF5D DUP4 PUSH2 0xC37 JUMP JUMPDEST SWAP3 POP DUP3 DUP3 ADD SWAP1 POP DUP1 DUP3 GT ISZERO PUSH2 0xF75 JUMPI PUSH2 0xF74 PUSH2 0xF1B JUMP JUMPDEST JUMPDEST SWAP3 SWAP2 POP POP JUMP JUMPDEST PUSH32 0x4E487B7100000000000000000000000000000000000000000000000000000000 PUSH0 MSTORE PUSH1 0x41 PUSH1 0x4 MSTORE PUSH1 0x24 PUSH0 REVERT JUMPDEST PUSH0 DUP2 SWAP1 POP DUP2 PUSH0 MSTORE PUSH1 0x20 PUSH0 KECCAK256 SWAP1 POP SWAP2 SWAP1 POP JUMP JUMPDEST PUSH0 PUSH1 0x20 PUSH1 0x1F DUP4 ADD DIV SWAP1 POP SWAP2 SWAP1 POP JUMP JUMPDEST PUSH0 DUP3 DUP3 SHL SWAP1 POP SWAP3 SWAP2 POP POP JUMP JUMPDEST PUSH0 PUSH1 0x8 DUP4 MUL PUSH2 0x1004 PUSH32 0xFFFFFFFFFFFFFFFFFFFFFFFFFFFFFFFFFFFFFFFFFFFFFFFFFFFFFFFFFFFFFFFF DUP3 PUSH2 0xFC9 JUMP JUMPDEST PUSH2 0x100E DUP7 DUP4 PUSH2 0xFC9 JUMP JUMPDEST SWAP6 POP DUP1 NOT DUP5 AND SWAP4 POP DUP1 DUP7 AND DUP5 OR SWAP3 POP POP POP SWAP4 SWAP3 POP POP POP JUMP JUMPDEST PUSH0 DUP2 SWAP1 POP SWAP2 SWAP1 POP JUMP JUMPDEST PUSH0 PUSH2 0x1049 PUSH2 0x1044 PUSH2 0x103F DUP5 PUSH2 0xC37 JUMP JUMPDEST PUSH2 0x1026 JUMP JUMPDEST PUSH2 0xC37 JUMP JUMPDEST SWAP1 POP SWAP2 SWAP1 POP JUMP JUMPDEST PUSH0 DUP2 SWAP1 POP SWAP2 SWAP1 POP JUMP JUMPDEST PUSH2 0x1062 DUP4 PUSH2 0x102F JUMP JUMPDEST PUSH2 0x1076 PUSH2 0x106E DUP3 PUSH2 0x1050 JUMP JUMPDEST DUP5 DUP5 SLOAD PUSH2 0xFD5 JUMP JUMPDEST DUP3 SSTORE POP POP POP POP JUMP JUMPDEST PUSH0 PUSH0 SWAP1 POP SWAP1 JUMP JUMPDEST PUSH2 0x108D PUSH2 0x107E JUMP JUMPDEST PUSH2 0x1098 DUP2 DUP5 DUP5 PUSH2 0x1059 JUMP JUMPDEST POP POP POP JUMP JUMPDEST JUMPDEST DUP2 DUP2 LT ISZERO PUSH2 0x10BB JUMPI PUSH2 0x10B0 PUSH0 DUP3 PUSH2 0x1085 JUMP JUMPDEST PUSH1 0x1 DUP2 ADD SWAP1 POP PUSH2 0x109E JUMP JUMPDEST POP POP JUMP JUMPDEST PUSH1 0x1F DUP3 GT ISZERO PUSH2 0x1100 JUMPI PUSH2 0x10D1 DUP2 PUSH2 0xFA8 JUMP JUMPDEST PUSH2 0x10DA DUP5 PUSH2 0xFBA JUMP JUMPDEST DUP2 ADD PUSH1 0x20 DUP6 LT ISZERO PUSH2 0x10E9 JUMPI DUP2 SWAP1 POP JUMPDEST PUSH2 0x10FD PUSH2 0x10F5 DUP6 PUSH2 0xFBA JUMP JUMPDEST DUP4 ADD DUP3 PUSH2 0x109D JUMP JUMPDEST POP POP JUMPDEST POP POP POP JUMP JUMPDEST PUSH0 DUP3 DUP3 SHR SWAP1 POP SWAP3 SWAP2 POP POP JUMP JUMPDEST PUSH0 PUSH2 0x1120 PUSH0 NOT DUP5 PUSH1 0x8 MUL PUSH2 0x1105 JUMP JUMPDEST NOT DUP1 DUP4 AND SWAP2 POP POP SWAP3 SWAP2 POP POP JUMP JUMPDEST PUSH0 PUSH2 0x1138 DUP4 DUP4 PUSH2 0x1111 JUMP JUMPDEST SWAP2 POP DUP3 PUSH1 0x2 MUL DUP3 OR SWAP1 POP SWAP3 SWAP2 POP POP JUMP JUMPDEST PUSH2 0x1151 DUP3 PUSH2 0xBC7 JUMP JUMPDEST PUSH8 0xFFFFFFFFFFFFFFFF DUP2 GT ISZERO PUSH2 0x116A JUMPI PUSH2 0x1169 PUSH2 0xF7B JUMP JUMPDEST JUMPDEST PUSH2 0x1174 DUP3 SLOAD PUSH2 0xEEB JUMP JUMPDEST PUSH2 0x117F DUP3 DUP3 DUP6 PUSH2 0x10BF JUMP JUMPDEST PUSH0 PUSH1 0x20 SWAP1 POP PUSH1 0x1F DUP4 GT PUSH1 0x1 DUP2 EQ PUSH2 0x11B0 JUMPI PUSH0 DUP5 ISZERO PUSH2 0x119E JUMPI DUP3 DUP8 ADD MLOAD SWAP1 POP JUMPDEST PUSH2 0x11A8 DUP6 DUP3 PUSH2 0x112D JUMP JUMPDEST DUP7 SSTORE POP PUSH2 0x120F JUMP JUMPDEST PUSH1 0x1F NOT DUP5 AND PUSH2 0x11BE DUP7 PUSH2 0xFA8 JUMP JUMPDEST PUSH0 JUMPDEST DUP3 DUP2 LT ISZERO PUSH2 0x11E5 JUMPI DUP5 DUP10 ADD MLOAD DUP3 SSTORE PUSH1 0x1 DUP3 ADD SWAP2 POP PUSH1 0x20 DUP6 ADD SWAP5 POP PUSH1 0x20 DUP2 ADD SWAP1 POP PUSH2 0x11C0 JUMP JUMPDEST DUP7 DUP4 LT ISZERO PUSH2 0x1202 JUMPI DUP5 DUP10 ADD MLOAD PUSH2 0x11FE PUSH1 0x1F DUP10 AND DUP3 PUSH2 0x1111 JUMP JUMPDEST DUP4 SSTORE POP JUMPDEST PUSH1 0x1 PUSH1 0x2 DUP9 MUL ADD DUP9 SSTORE POP POP POP JUMPDEST POP POP POP POP POP POP JUMP JUMPDEST PUSH0 DUP3 DUP3 MSTORE PUSH1 0x20 DUP3 ADD SWAP1 POP SWAP3 SWAP2 POP POP JUMP JUMPDEST PUSH32 0x4164647265737320686173206E6F7420766F7465642079657400000000000000 PUSH0 DUP3 ADD MSTORE POP JUMP JUMPDEST PUSH0 PUSH2 0x125B PUSH1 0x19 DUP4 PUSH2 0x1217 JUMP JUMPDEST SWAP2 POP PUSH2 0x1266 DUP3 PUSH2 0x1227 JUMP JUMPDEST PUSH1 0x20 DUP3 ADD SWAP1 POP SWAP2 SWAP1 POP JUMP JUMPDEST PUSH0 PUSH1 0x20 DUP3 ADD SWAP1 POP DUP2 DUP2 SUB PUSH0 DUP4 ADD MSTORE PUSH2 0x1288 DUP2 PUSH2 0x124F JUMP JUMPDEST SWAP1 POP SWAP2 SWAP1 POP JUMP JUMPDEST PUSH0 PUSH2 0x1299 DUP3 PUSH2 0xC37 JUMP JUMPDEST SWAP2 POP PUSH2 0x12A4 DUP4 PUSH2 0xC37 JUMP JUMPDEST SWAP3 POP DUP3 DUP3 SUB SWAP1 POP DUP2 DUP2 GT ISZERO PUSH2 0x12BC JUMPI PUSH2 0x12BB PUSH2 0xF1B JUMP JUMPDEST JUMPDEST SWAP3 SWAP2 POP POP JUMP JUMPDEST PUSH32 0x4E487B7100000000000000000000000000000000000000000000000000000000 PUSH0 MSTORE PUSH1 0x32 PUSH1 0x4 MSTORE PUSH1 0x24 PUSH0 REVERT JUMPDEST PUSH32 0x4E487B7100000000000000000000000000000000000000000000000000000000 PUSH0 MSTORE PUSH1 0x12 PUSH1 0x4 MSTORE PUSH1 0x24 PUSH0 REVERT JUMPDEST PUSH0 PUSH2 0x1326 DUP3 PUSH2 0xC37 JUMP JUMPDEST SWAP2 POP PUSH2 0x1331 DUP4 PUSH2 0xC37 JUMP JUMPDEST SWAP3 POP DUP3 PUSH2 0x1341 JUMPI PUSH2 0x1340 PUSH2 0x12EF JUMP JUMPDEST JUMPDEST DUP3 DUP3 MOD SWAP1 POP SWAP3 SWAP2 POP POP JUMP JUMPDEST PUSH0 PUSH2 0x1356 DUP3 PUSH2 0xC37 JUMP JUMPDEST SWAP2 POP PUSH2 0x1361 DUP4 PUSH2 0xC37 JUMP JUMPDEST SWAP3 POP DUP3 PUSH2 0x1371 JUMPI PUSH2 0x1370 PUSH2 0x12EF JUMP JUMPDEST JUMPDEST DUP3 DUP3 DIV SWAP1 POP SWAP3 SWAP2 POP POP JUMP INVALID LOG2 PUSH5 0x6970667358 0x22 SLT KECCAK256 RETURN DUP8 SWAPN 0x73 PUSH2 0x893A ORIGIN CALL PUSH21 0xE95D344E4EE9C4A77EDB4EC38FD0AEF9BE8CEF26E CALL PUSH5 0x736F6C6343 STOP ADDMOD 0x1E STOP CALLER "
		},
		"gasEstimates": {
			"creation": {
				"codeDepositCost": "1008400",
				"executionCost": "73884",
				"totalCost": "1082284"
			},
			"external": {
				"create(string,uint256)": "infinite",
				"getCurrentProposal()": "infinite",
				"getProposal(uint256)": "infinite",
				"isVoted(address)": "infinite",
				"setOwner(address)": "26883",
				"terminateProposal()": "33278",
				"vote(uint8)": "infinite"
			},
			"internal": {
				"calculateCurrentState()": "infinite"
			}
		},
		"methodIdentifiers": {
			"create(string,uint256)": "46f81a87",
			"getCurrentProposal()": "41ec6870",
			"getProposal(uint256)": "c7f758a8",
			"isVoted(address)": "cbff75cb",
			"setOwner(address)": "13af4035",
			"terminateProposal()": "dbddc7aa",
			"vote(uint8)": "b3f98adc"
		}
	},
	"abi": [
		{
			"inputs": [],
			"stateMutability": "nonpayable",
			"type": "constructor"
		},
		{
			"inputs": [
				{
					"internalType": "string",
					"name": "_description",
					"type": "string"
				},
				{
					"internalType": "uint256",
					"name": "_total_vote_to_end",
					"type": "uint256"
				}
			],
			"name": "create",
			"outputs": [],
			"stateMutability": "nonpayable",
			"type": "function"
		},
		{
			"inputs": [],
			"name": "getCurrentProposal",
			"outputs": [
				{
					"components": [
						{
							"internalType": "string",
							"name": "description",
							"type": "string"
						},
						{
							"internalType": "uint256",
							"name": "approve",
							"type": "uint256"
						},
						{
							"internalType": "uint256",
							"name": "reject",
							"type": "uint256"
						},
						{
							"internalType": "uint256",
							"name": "pass",
							"type": "uint256"
						},
						{
							"internalType": "uint256",
							"name": "total_vote_to_end",
							"type": "uint256"
						},
						{
							"internalType": "bool",
							"name": "current_state",
							"type": "bool"
						},
						{
							"internalType": "bool",
							"name": "is_active",
							"type": "bool"
						}
					],
					"internalType": "struct ProposalContract.Proposal",
					"name": "",
					"type": "tuple"
				}
			],
			"stateMutability": "view",
			"type": "function"
		},
		{
			"inputs": [
				{
					"internalType": "uint256",
					"name": "number",
					"type": "uint256"
				}
			],
			"name": "getProposal",
			"outputs": [
				{
					"components": [
						{
							"internalType": "string",
							"name": "description",
							"type": "string"
						},
						{
							"internalType": "uint256",
							"name": "approve",
							"type": "uint256"
						},
						{
							"internalType": "uint256",
							"name": "reject",
							"type": "uint256"
						},
						{
							"internalType": "uint256",
							"name": "pass",
							"type": "uint256"
						},
						{
							"internalType": "uint256",
							"name": "total_vote_to_end",
							"type": "uint256"
						},
						{
							"internalType": "bool",
							"name": "current_state",
							"type": "bool"
						},
						{
							"internalType": "bool",
							"name": "is_active",
							"type": "bool"
						}
					],
					"internalType": "struct ProposalContract.Proposal",
					"name": "",
					"type": "tuple"
				}
			],
			"stateMutability": "view",
			"type": "function"
		},
		{
			"inputs": [
				{
					"internalType": "address",
					"name": "_address",
					"type": "address"
				}
			],
			"name": "isVoted",
			"outputs": [
				{
					"internalType": "bool",
					"name": "",
					"type": "bool"
				}
			],
			"stateMutability": "view",
			"type": "function"
		},
		{
			"inputs": [
				{
					"internalType": "address",
					"name": "new_owner",
					"type": "address"
				}
			],
			"name": "setOwner",
			"outputs": [],
			"stateMutability": "nonpayable",
			"type": "function"
		},
		{
			"inputs": [],
			"name": "terminateProposal",
			"outputs": [],
			"stateMutability": "nonpayable",
			"type": "function"
		},
		{
			"inputs": [
				{
					"internalType": "uint8",
					"name": "choice",
					"type": "uint8"
				}
			],
			"name": "vote",
			"outputs": [],
			"stateMutability": "nonpayable",
			"type": "function"
		}
	]
}